:020000040800F2
:10000000E8B7002439030008B1330008492C000880
:10001000A933000831050008D94400080000000099
:100020000000000000000000000000003137000860
:100030003905000800000000E933000869370008AE
:100040005303000853030008530300085303000838
:100050005303000853030008530300085303000828
:100060005303000853030008530300085303000818
:100070005303000853030008530300085303000808
:1000800053030008530300085303000853030008F8
:1000900053030008530300085303000853030008E8
:1000A00053030008530300085303000853030008D8
:1000B00053030008530300085303000853030008C8
:1000C00053030008530300085303000853030008B8
:1000D00053030008530300085303000853030008A8
:1000E00053030008530300080000000053030008F6
:1000F0005303000853030008530300085303000888
:100100005303000853030008530300085303000877
:10011000693A00085303000853030008530300081A
:100120005303000853030008530300085303000857
:100130005303000853030008530300085303000847
:1001400000000000000000000000000000000000AF
:100150005303000853030008530300085303000827
:100160005303000853030008530300085303000817
:100170005303000853030008530300080000000065
:1001800053030008530300085303000853030008F7
:1001900053030008530300085303000853030008E7
:1001A00053030008530300085303000853030008D7
:1001B00053030008530300085303000853030008C7
:1001C00053030008530300085303000853030008B7
:1001D00053030008530300085303000853030008A7
:1001E0005303000853030008530300085303000897
:1001F0005303000853030008530300085303000887
:100200005303000853030008530300085303000876
:10021000530300085303000819390008530300086A
:1002200053030008530300085303000800000000B4
:1002300053030008530300080000000053030008A4
:100240005303000853030008530300085303000836
:100250005303000853030008530300085303000826
:100260005303000853030008530300085303000816
:100270005303000853030008530300080000000064
:100280005303000853030008530300080000000054
:10029000000000005303000800F002F800F03CF8F2
:1002A0000AA090E8000C82448344AAF10107DA45D1
:1002B00001D100F031F8AFF2090EBAE80F0013F0E7
:1002C000010F18BFFB1A43F0010318472C4300002D
:1002D0004C430000103A24BF78C878C1FAD85207BE
:1002E00024BF30C830C144BF04680C6070470000B0
:1002F0000023002400250026103A28BF78C1FBD82F
:10030000520728BF30C148BF0B6070471FB504F0CB
:100310004AF91FBD10B510BD00F0D0F81146FFF727
:10032000F5FF04F019F900F0EEF803B4FFF7F2FF5F
:1003300003BC00F0F5F80000094880470948004771
:10034000FEE7FEE7FEE7FEE7FEE7FEE7FEE7FEE785
:10035000FEE7FEE704480549054A064B70470000E2
:100360003938000899020008E8970024E8B700240B
:10037000E8A70024E8A7002453EA020C00F06980F3
:100380002DE9F04B4FF00006002B1FBFB3FA83F5A9
:1003900003FA05F424FA05F65E4012BF1643B2FADA
:1003A00082F502FA05F4C5F120051EBF22FA05FC0C
:1003B00044EA0C04203556EA044C4FEA144418BFB2
:1003C000641C4FF000084FF00009904271EB030CE1
:1003D00039D3002919BFB1FA81F701FA07F6B0FA4B
:1003E00080F700FA07F6C7F120071EBF20FA07FCC6
:1003F00046EA0C062037B6FBF4FCA7EB0507103FD6
:1004000007F01F0BCBF120062CFA06F60CFA0BFBBB
:1004100044BFB3460026202FA4BF5E464FF0000B1A
:100420005BEA060C08BF4FF0010B19EB0B0948EB18
:100430000608ABFB027C06FB02CC0BFB03CCC01B0B
:1004400071EB0C01C1E70B46024641464846BDE848
:10045000F08B13B5084318BF4FF0FF300146AFF3E0
:100460000080BDE81C4070474FF0000200B5134605
:1004700094469646203922BFA0E80C50A0E80C50C4
:10048000B1F12001BFF4F7AF090728BFA0E80C5075
:1004900048BF0CC05DF804EB890028BF40F8042B6E
:1004A00008BF704748BF20F8022B11F0804F18BFDB
:1004B00000F8012B7047704770477047754600F091
:1004C0002BF8AE4605006946534620F007008546E6
:1004D00018B020B5FFF73EFFBDE820404FF0000602
:1004E0004FF000074FF000084FF0000BAC46ACE8AF
:1004F000C009ACE8C009ACE8C009ACE8C00921F00B
:1005000007018D46704710B50446AFF300802046C2
:10051000BDE81040FFF709BF0048704718000024ED
:1005200001491820ABBEFEE726000200704700001C
:10053000FEE700000000000070470000000000001F
:10054000704700000000000080B5D8B190F8351069
:10055000022919D140F20F420168C4F2020291420D
:1005600016DC6F23C4F20203994226DC3F23C4F257
:10057000020399423CDC1023C4F2020399425AD090
:10058000282354E0012080BD80214165012080BDE9
:1005900040F26F43C4F2020399421ADC40F23F4337
:1005A000C4F2020399422ADC40F21043C4F202036F
:1005B000994240D040F2284339E09F23C4F202031D
:1005C000994225DC7023C4F20203994233D0882378
:1005D0002DE040F29F43C4F2020399421FDC40F237
:1005E0007043C4F20203994225D040F288431EE0D2
:1005F0004023C4F2020399421DD0582317E040F271
:100600004043C4F20203994215D040F258430EE031
:10061000A023C4F2020399420DD0B82307E040F2B0
:10062000B843C4F20203994205D040F2A043C4F299
:100630000203994270D191424FF0040280F83520B4
:1006400010DC6F22C4F20202914220DC3F22C4F28D
:100650000202914236DC1022C4F20202914254D0CE
:1006600028224EE040F26F42C4F2020291421ADCAC
:1006700040F23F42C4F2020291422ADC40F21042B0
:10068000C4F20202914240D040F2284239E09F2257
:10069000C4F20202914225DC7022C4F202029142AD
:1006A00033D088222DE040F29F42C4F202029142F0
:1006B0001FDC40F27042C4F20202914225D040F2A7
:1006C00088421EE04022C4F2020291421DD058220C
:1006D00017E040F24042C4F20202914215D040F2CB
:1006E00058420EE0A022C4F2020291420DD0B8227C
:1006F00007E040F2B842C4F20202914205D040F253
:10070000A042C4F20202914224D10068016821F0A3
:1007100001010160002080BD0268136823F00E0310
:10072000136045F25742C5F6020291420A6822F070
:1007300001020A6014DC45F22F42C5F60202914222
:100740001DDC45F20842C5F6020291422CD045F26A
:100750001C4225E0086820F001000860002080BDF0
:1007600045F27F42C5F60202914211DC45F2584241
:10077000C5F60202914217D045F26C4210E045F2F4
:100780003042C5F6020291420ED045F2444207E0E3
:1007900045F29442C5F60202914205D045F28042EC
:1007A000C5F6020291421AD1D0E9181CD0E916E32D
:1007B0000A6822F480720A6003F01F01012202FA23
:1007C00001F1CEF80410816ECCF80410C16E31B185
:1007D0000A6822F480720A60D0E91C124A60002183
:1007E00080F83410012280F83520026D0AB190475C
:1007F0000021084680BD0000B0B5044600F0F4F8C2
:1008000040F20C010546C2F20041621C097818BF93
:100810000C4400BF00F0E8F8401BA042FAD3B0BD82
:100820002DE9F04F83B00E68002E00F0C98000F172
:1008300026420A2302F1FF7240F2040C4FEAB22270
:10084000019242F20042C5F6000CC5F602024FF0DA
:10085000010B90424FF0000508BF092300274FF01D
:10086000010800930AE000BF0E68043736FA08F268
:1008700008F1010805F1020500F0A280A8F1010AC3
:100880000BFA0AF216EA0209EED04E68122E17D8B9
:100890000BFA06F414F0061F12D00323D0F808E078
:1008A000AB40CC682EEA0303AC402343836043682B
:1008B000C6F3001423EA020204FA0AF31A43426060
:1008C0000323C268AB4046F010046FEA030E9A435C
:1008D0008B68122C03FA05F342EA0302C26012D1BC
:1008E0006FF0030207F01C0402EA5A020F260244CA
:1008F000A640136AD1F810B0B3430BFA04F44FF0DA
:10090000010B2343136202684B6803F0030402EAFD
:100910000E02AC40DB0042EA04020260A4D544F2BD
:10092000F443C5F602031A6842F002021A601A681C
:1009300007F00C0302F002020292029A2AF003026C
:1009400040F2084A019C009EC5F6000A092C38BFF7
:1009500026460F2452F80AE09C402EEA040406FAC8
:1009600003F3234342F80A30DCF87C204B6842EA68
:100970000906DC0358BF22EA09069C034FF0B04E7B
:10098000CCF87C60DCF8802042EA090658BF22EAF5
:100990000906DC02CCF88060DEF8002042EA090695
:1009A00058BF22EA09069B02CEF80060DCF800205E
:1009B00042EA090658BF22EA0906CCF8006053E76C
:1009C00003B0BDE8F08F0000002A08BF0904816170
:1009D000704700000000000041F20000C5F6004032
:1009E0000068000C7047000049F2E470C2F2004059
:1009F000006870470000000040F20C0049F2E4710A
:100A0000C2F20040C2F2004100780A681044086057
:100A1000704700000000000080B5032000F080F85F
:100A200000F0FEFF44F2184144F2C053C5F6020143
:100A3000C0F600030A68C2F30322096801F00F013F
:100A40009A5C595C02F01F02D04040F20802C2F2E8
:100A5000004201F01F0120FA01F1116040F204018F
:100A6000C2F200410860002000F00AF800281CBF14
:100A7000012080BD00F030F8002080BD00000000A3
:100A8000B0B540F20C01C2F20041097801B304464E
:100A900040F20400C2F200404FF47A72B2FBF1F16E
:100AA0000068B0FBF1F001F0A7FC0F2C4FF001053E
:100AB0000CD858B94FF0FF3000222146002500F035
:100AC0001FF840F21000C2F2004004602846B0BD9A
:100AD0000120B0BD0000000081B044F2F440C5F632
:100AE0000200016841F002010160006800F00200AC
:100AF0000090009801B0704780B503F0F1FC80BD14
:100B000070B514460D46064603F0FAFC2946224607
:100B100002F052FC0146304603F0FAFC70BD0000C2
:100B200080B503F009FD80BDB0B544F60C05C5F6EF
:100B3000020529684907296805D401F00701081A48
:100B400018BF0120B0BD21F0070108432860FFF75E
:100B50004BFF044655F8080C800407D4FFF744FF08
:100B6000001BB0F57A7FF5D90120B0BD0020B0BDE3
:100B700080B500F005FF44F2204144F2C052C5F6B2
:100B80000201C0F600020968C1F30211515C01F0D4
:100B90001F01C84080BD000080B544F2384EC5F644
:100BA000020E5EF8103C5EF8102CC2F3053C5EF8B5
:100BB0000C2CBCF1000FC2F30012DEF80410C1F3DC
:100BC000CC0102FB01F100EE101AB8EE400A0BD086
:100BD00003F00303022B0CD073B95EF8381C8906AE
:100BE0000DD49FED351A18E00021C0E90011816095
:100BF00080BD9FED301A10E09FED2D1A0DE05EF8DC
:100C0000381C49F20002C0F2D032C1F3C10122FA0D
:100C100001F101EE101AB8EE411A02EE10CA9FED72
:100C2000274AB8EE422ADEF800106FF35F2103EE88
:100C3000101A81EE021AB8EE433ADEF8001000EE08
:100C4000043AB7EE000AC1F3462133EE002A03EE60
:100C5000101AB8EE433A21EE021A33EE002A81EE62
:100C6000022ABCEEC22A80ED002ADEF80010C1F391
:100C7000064102EE101AB8EE422A32EE002A81EE48
:100C8000022ABCEEC22A80ED012ADEF80010C1F370
:100C9000066102EE101AB8EE422A32EE000A81EE28
:100CA000000ABCEEC00A10EE101A816080BD00BFC1
:100CB0000024744A20BCBE4B0024744C0000003950
:100CC00080B544F2404EC5F6020E5EF8183C5EF860
:100CD000182CC2F3055C5EF8142CBCF1000FC2F3B3
:100CE0000022DEF80410C1F3CC0102FB01F100EE9A
:100CF000101AB8EE400A0BD003F00303022B0CD0FD
:100D000073B95EF8401C89060DD49FED351A18E0C2
:100D10000021C0E90011816080BD9FED301A10E014
:100D20009FED2D1A0DE05EF8401C49F20002C0F262
:100D3000D032C1F3C10122FA01F101EE101AB8EE6E
:100D4000411A02EE10CA9FED274AB8EE422ADEF899
:100D500000106FF35F2103EE101A81EE021AB8EE55
:100D6000433ADEF8001000EE043AB7EE000AC1F391
:100D7000462133EE002A03EE101AB8EE433A21EE74
:100D8000021A33EE002A81EE022ABCEEC22A80ED5E
:100D9000002ADEF80010C1F3064102EE101AB8EE88
:100DA000422A32EE002A81EE022ABCEEC22A80EDEF
:100DB000012ADEF80010C1F3066102EE101AB8EE47
:100DC000422A32EE000A81EE000ABCEEC00A10EEA2
:100DD000101A816080BD00BF0024744A20BCBE4B45
:100DE0000024744C000000392DE9F04381B0044622
:100DF000C07844F22C490007C5F6020901D4002648
:100E00002DE0606E4FEA305003280DD80026DFE851
:100E100000F0020E1613D9F80000002640F400304E
:100E2000C9F800004EB912E0012636B90FE0201DC6
:100E3000022102F0DDFA06464EB1B04611E004F19F
:100E40002400022102F064FB0646002EF5D1D9F8F9
:100E50002400616E20F440100843C9F824004FF0CC
:100E600000086078C0072FD0606D042807D8DFE83D
:100E700000F00A131B030300F6B1B04624E001267C
:100E8000002EFAD118E0D9F8000040F40030C9F87B
:100E90000000002EF1D10FE0201D002102F0A8FA81
:100EA0000646002EE9D107E004F12400002102F0FB
:100EB0002FFB0646002EE0D1D9F82400616D20F00A
:100EC00007000843C9F824006078800731D5A06D79
:100ED0004FEAB010042807D8DFE800F00A131B031C
:100EE0000300F6B1B04624E00126002EFAD118E046
:100EF000D9F8000040F40030C9F80000002EF1D10C
:100F00000FE0201D002102F073FA0646002EE9D101
:100F100007E004F12400002102F0FAFA0646002E50
:100F2000E0D1D9F82400A16D20F4E0700843C9F89D
:100F300024006078400733D5D4F8A4004FEA7050FD
:100F4000042807D8DFE800F00A131B030300F6B1FA
:100F5000B04625E00126002EFAD118E0D9F80000AD
:100F600040F40030C9F80000002EF1D10FE0201D40
:100F7000002102F03DFA0646002EE9D107E004F117
:100F80002400002102F0C4FA0646002EE0D1D9F870
:100F90002C00D4F8A41020F460000843C9F82C00F9
:100FA0006078000733D5D4F8A8004FEA30600428F1
:100FB00007D8DFE800F00A131B030300F6B1B046C0
:100FC00025E00126002EFAD118E0D9F8000040F4FF
:100FD0000030C9F80000002EF1D10FE0201D0021E3
:100FE00002F006FA0646002EE9D107E004F12400DB
:100FF000002102F08DFA0646002EE0D1D9F82C002F
:10100000D4F8A81020F0E0600843C9F82C00E0787C
:10101000800727D5A06C4FEA3010032806D8DFE8F8
:1010200000F002091202AEB1B0461BE00126002E0C
:10103000FAD10FE0D9F8000040F40030C9F8000000
:10104000002EF1D106E0201D022102F0D1F9064662
:10105000002EE9D1D9F82000A16C20F0300008431F
:10106000C9F820006078C00631D5E06D4FEA303015
:10107000042807D8DFE800F00A131B030300F6B1C9
:10108000B04624E00126002EFAD118E0D9F800007D
:1010900040F40030C9F80000002EF1D10FE0201D0F
:1010A000002102F0A5F90646002EE9D107E004F17F
:1010B0002400002102F02CFA0646002EE0D1D9F8D7
:1010C0002400E16D20F4E0400843C9F82400607872
:1010D000800625D5206E4FEA3040052807D8DFE886
:1010E00000F0030A0F03030396B1B04618E001268F
:1010F000002EFAD10CE0201D012102F079F904E064
:1011000004F12400012102F003FA0646002EECD17E
:10111000D9F82400216E20F4E0200843C9F8240007
:101120006078400627D5D4F8AC004FEA3070052827
:1011300007D8DFE800F0030A0F03030396B1B046B7
:1011400019E00126002EFAD10CE0201D012102F049
:101150004FF904E004F12400012102F0D9F9064618
:10116000002EECD1D9F82C00D4F8AC1020F0E040DF
:101170000843C9F82C00607800061FD5E06ED0B196
:10118000B0F1005F12D0B0F1805F24D1D9F8000037
:1011900040F40030C9F800007EB9D9F82400E16EAF
:1011A00020F040500843C9F8240007E0201D012129
:1011B00002F01EF90646002EEFD0B046E078C007D8
:1011C00029D0606C03280AD8DFE800F0020D16026F
:1011D000CEB1B0461FE00126002EEED1DDE701269C
:1011E000002EF6D10FE0D9F8000040F40030C9F825
:1011F0000000002EEDD106E0201D022102F0F8F8DB
:101200000646002EE5D1D9F82000616C20F00300DD
:101210000843C9F82000A078400643D5D9F8D40384
:1012200040F48070C9F8D403FFF7DEFB074600BF27
:10123000D9F8D403C00505D4FFF7D6FBC01B652839
:10124000F6D303266EBBD9F84410D4F8B000414061
:1012500011F4407F11D0D9F84410D9F8442042F459
:101260008032C9F84420D9F8442021F4407122F496
:101270008032C9F84420C9F84410B0F5807F0FD1FE
:10128000FFF7B2FB074641F2893500BFD9F84400A9
:10129000800705D4FFF7A8FBC01BA842F6D303269E
:1012A00086B1B0462078C00741D0A06F4FEAF00069
:1012B000052823D8DFE800F003262B03030376B3C9
:1012C000B04634E04FF6CF73D4F8B00059F81C2C78
:1012D000C0F2FF0300F4407122F47C5203EA1013C1
:1012E000B1F5407F08BF1A436FF31F3049F81C2C3B
:1012F000D9F844100843C9F84400D3E70126002E6A
:10130000DED10CE0201D012102F072F804E004F1AE
:101310002400012102F0FCF80646002ED0D1D9F8B5
:101320002800A16F20F038000843C9F82800207871
:10133000800723D5606F052807D8DFE800F0030A8F
:101340000F03030396B1B04618E00126002EFAD130
:101350000CE0201D012102F04BF804E004F1240010
:10136000012102F0D5F80646002EECD1D9F828006C
:10137000616F20F007000843C9F828002078400773
:1013800025D5D4F89000052807D8DFE800F0030A37
:101390000F03030396B1B04619E00126002EFAD1DF
:1013A0000CE0201D012102F023F804E004F12400E8
:1013B000012102F0ADF80646002EECD1D9F82C0040
:1013C000D4F8901020F007000843C9F82C002078CA
:1013D000800627D5D4F88C004FEA3070052807D84E
:1013E000DFE800F0030A0F03030396B1B04619E0EB
:1013F0000126002EFAD10CE0201D002101F0F8FF9B
:1014000004E004F12400022102F082F80646002ED6
:10141000ECD1D9F82800D4F88C1020F0E040084333
:10142000C9F828002078400627D5D4F898004FEA5C
:10143000B020052807D8DFE800F0030A0F030303F4
:1014400096B1B04619E00126002EFAD10CE0201D1D
:10145000002101F0CDFF04E004F12400022102F09C
:1014600057F80646002EECD1D9F82C00D4F8981085
:1014700020F4E0500843C9F82C002078000627D556
:10148000D4F89C004FEA7030052807D8DFE800F058
:10149000030A0F03030396B1B04619E00126002E9C
:1014A000FAD10CE0201D002101F0A2FF04E004F1BC
:1014B0002400022102F02CF80646002EECD1D9F8C7
:1014C0002C00D4F89C1020F460400843C9F82C008C
:1014D0002078000716D5D4F88000B0F5805F08D1D9
:1014E00004F12400022102F013F8002818BF4FF085
:1014F0000108D9F82800D4F8801020F4405008439F
:10150000C9F828002078C00616D5D4F89400B0F5A4
:10151000807F08D104F12400022101F0F9FF0028A6
:1015200018BF4FF00108D9F82C00D4F8941020F41B
:1015300040700843C9F82C00A078000721D5D4F8E2
:10154000A000B0F5003F19D0B0F5803F10D0C0BB6F
:10155000201D002101F04CFF06468EB9D9F82C0061
:10156000D4F8A01020F440300843C9F82C0008E05B
:1015700004F12400022101F0CBFF0646002EEDD03D
:10158000B046A078400729D5D4F88400B0F5401FB4
:1015900021D0B0F5001F18D0B0F5801F40F0B48006
:1015A000D9F8000040F40030C9F80000AEB9D9F80D
:1015B0002800D4F8841020F440100843C9F828000B
:1015C0000CE00126002EDBD1C8E704F12400012144
:1015D00001F09EFF0646002EE9D0B046A078C00775
:1015E0001FD0E06CB0F5803F10D0B0B9D9F8000042
:1015F00040F40030C9F8000096B9D9F82000E16C39
:1016000020F480300843C9F820000AE0201D0221A0
:1016100001F0EEFE06461EB9EFE70126002EECD0E3
:10162000B046E078800608D504F12400022101F0DC
:101630006FFF002818BF4FF001082068810313D402
:10164000C10229D4C10031D481023AD4410042D42C
:10165000B0F1FF3F4FDDB8F1000F18BF4FF00108A8
:10166000404601B0BDE8F083E16F6FF0010202EB8C
:101670003122022A0AD34FEA31223AB1012A48D153
:10168000D9F8002042F40032C9F80020002E43D0DF
:101690004FF00108C102D5D5D9F82410226F21F0EE
:1016A00000411143C9F82410C100CDD559F81C1CC4
:1016B000D4F8B42021F48041114349F81C1C810264
:1016C000C4D5D9F82410A26E21F080711143C9F855
:1016D00024104100BCD559F81C1C21F4004149F8E4
:1016E0001C1CD4F8B81059F81C2C114349F81C1CC8
:1016F000B0F1FF3FAFDCD9F82000216D20F0405061
:101700000843C9F82000A6E70126002E7FF465AF44
:101710004DE70126002EBBD1D9F8282022F44072D3
:101720001143C9F82810C1027FF58CAFB4E700005F
:101730002DE9F04381B0002800F0F28042F2000869
:101740000446C5F200288946D8F8000000F00F00D2
:1017500088420ED2D8F8000020F00F0040EA0900BD
:10176000C8F80000D8F8000000F00F00484540F02D
:10177000D780206844F218474107C5F602070AD50A
:1017800021693A6802F07002914204D93A6822F065
:1017900070021143396001070AD561697A6802F065
:1017A0007002914204D97A6822F070021143796084
:1017B000C1060AD5A1697A6802F4E062914204D9AF
:1017C0007A6822F4E0621143796081060AD5E16902
:1017D000BA6802F07002914204D9BA6822F070022D
:1017E0001143B96081070AD5E1683A6802F00F0237
:1017F000914204D93A6822F00F0211433960C007C0
:101800007ED1206881070AD5E1683A6802F00F02AC
:10181000914204D23A6822F00F0211433960D8F89D
:10182000001001F00F0149450DD9D8F8001021F042
:101830000F0141EA0901C8F80010D8F8001001F0C2
:101840000F0149456CD141070AD521693A6802F078
:101850007002914204D23A6822F07002114339605A
:1018600001070AD561697A6802F07002914204D2D8
:101870007A6822F0700211437960C1060AD5A16925
:101880007A6802F4E062914204D27A6822F4E0625B
:101890001143796080060AD5E069B96801F07001EA
:1018A000884204D2B96821F070010843B86000F0A2
:1018B000B7F8396844F2C052C0F60002C1F3032100
:1018C0003B6803F00F03515CD25C01F01F01C8407C
:1018D00002F01F0140F2080220FA01F1C2F20042B8
:1018E000116040F2040140F21002C2F20041C2F263
:1018F000004208601068FFF7C3F801B0BDE8F0834C
:10190000386820F47061D4E90102032841EA020139
:10191000396009D0022829D157F8181C890307D447
:10192000012001B0BDE8F08357F8181C8901F7D5F4
:1019300057F8081C21F00701084347F8080CFFF787
:1019400053F8064641F2883557F8080C616800F0F4
:101950003800B0EBC10F3FF454AFFFF745F8801BE0
:10196000A842F1D9032001B0BDE8F083012857F85F
:10197000181C02D1C905D3D5DAE74907D0D5D7E776
:1019800080B500F04DF844F2184144F2C053C5F65A
:101990000201C0F600030A68C2F30322096801F0DD
:1019A0000F019A5C595C02F01F0220FA02F201F06A
:1019B0001F0040F2080122FA00F0C2F20041086064
:1019C00040F20401C2F200410A6080BD0000000044
:1019D00080B5FFF7D5FF44F21C4144F2C052C5F672
:1019E0000201C0F600020968C1F30211515C01F066
:1019F0001F01C84080BD000080B5FFF7C1FF44F261
:101A00001C4144F2C052C5F60201C0F6000209684A
:101A1000C1F30221515C01F01F01C84080BD0000EC
:101A200044F20041C5F602010869C0F3C200032870
:101A30000FD002282BD078BB0868800649F200003E
:101A4000C0F2D03058BF70470968C1F3C101C84027
:101A500070478A6A886AC0F3051CCB6A486B03F03A
:101A60000103BCF1000FC0F3CC0003FB00F000EE5B
:101A7000100AB8EE400A14D002F00302022A12D073
:101A8000A2B90868800614D49FED251A1EE047F617
:101A90004000C0F27D10704740F60010C0F23D00DB
:101AA0007047002070479FED1D1A0FE09FED1A1A36
:101AB0000CE0086849F20002C0F2D032C0F3C10065
:101AC00022FA00F001EE100AB8EE411A02EE10CA36
:101AD0009FED144AB8EE422A086B6FF35F2003EEC5
:101AE000100A81EE021AB8EE433A086B00EE043A8F
:101AF000B7EE000AC0F34620013033EE000A21EEB3
:101B0000000A01EE100AB8EE411A80EE010ABCEE9E
:101B1000C00A10EE100A70470024744A20BCBE4B65
:101B20000024744C000000392DE9F041002800F039
:101B300046810446007844F20046C007C5F6020616
:101B40004AD0306900F03801B06A102905D0182950
:101B50000AD100F00300022806D13068800337D58F
:101B60006068A8BB012726E065686DB1B5F5803FC8
:101B700006D0B5F5A02F306807D140F48020306042
:101B8000306840F4803006E0306820F48030306007
:101B9000306820F480203060FEF726FF002D0546D7
:101BA00013D000BF3068800312D4FEF71DFF401B26
:101BB0006428F7D903270020002800F016820BE0E4
:101BC000FEF712FF401B6428F4D830688003F7D476
:101BD0000120002800F009822078800755D530695F
:101BE00010F03801B06A18D0182908BF5FEA807079
:101BF00013D0E068316858B321F019010843306010
:101C0000FEF7F2FE054600BF306840070AD4FEF733
:101C1000EBFE401B0228F7D928E03068400701D5C9
:101C2000E06868B3FEF7D8FE41F20301884208D8A5
:101C300020697168402821F47C3119D141F40030C9
:101C400018E07068216920F0FE4040EA016011E070
:101C500021F001003060FEF7C7FE054630684007FE
:101C600009D5FEF7C1FE401B0328F7D3032708E080
:101C700041EA003070600120002800F0B68104E0E5
:101C800001270020002800F0B0812078C0065AD536
:101C9000306900F03801B06A082905D0182918D138
:101CA00000F00300012814D13068C00502D5E069B6
:101CB000802843D1FEF790FE41F2030188421CD8F0
:101CC000206A7168202821F0F8412FD141F080402E
:101CD0002EE0E0690028306817D040F080003060C6
:101CE000FEF782FE054600BF3068C005E2D4FEF76D
:101CF0007BFE401B0228F7D916E0F068216A20F02D
:101D00007C5040EA0160F06013E020F08000306019
:101D1000FEF76AFE054600BF3068C00509D5FEF72C
:101D200063FE401B0328F7D3032708E041EA8060E5
:101D300070600120002800F0588104E00127002095
:101D4000002800F05281207800073CD420788006DB
:101D50004DD4207840075ED4656A65B3306900F0E1
:101D60003800182840F09E80012DB16A306B26D0D3
:101D700001F00302A36A9A4221D1C1F30511E26A7C
:101D800091421CD10146226B6FF35F21013A9142CF
:101D900015D1C0F34621626B013A91420FD1C0F3D5
:101DA0000641A26B013A914209D1C0F30660E16B92
:101DB0000139884203D10027F8B2BDE8F08101273C
:101DC000F8B2BDE8F08160690028706F39D040F04A
:101DD00001007067FEF708FE054600BF706F8007C0
:101DE000B4D4FEF701FE401B0228F7D925E0A06914
:101DF0000028306844D040F480503060FEF7F4FD95
:101E0000054600BF30688004A3D4FEF7EDFD401BFB
:101E10000228F7D911E0D6F8000440F48070C6F823
:101E20000004FEF7E1FD0546D6F80004C00519D40C
:101E3000FEF7DAFD401B6428F6D90327F8B2BDE8A7
:101E4000F08120F001007067FEF7CEFD0546032704
:101E5000706F80077FF57AAFFEF7C6FD401B022842
:101E6000F6D9C2E0A568EDB3012D05D0052D306F80
:101E700039D140F004003067306F40F0010038E0A5
:101E800020F480503060FEF7AFFD0546032700BF09
:101E9000306880047FF55DAFFEF7A6FD401B022889
:101EA000F6D9A2E0306820F080703060FEF79CFD2B
:101EB000022D05464FF003070AD100BF30688001AC
:101EC00035D5FEF791FD401B0228F7D98DE000BF04
:101ED000306880017FF56FAFFEF786FD401B02285A
:101EE000F6D982E0306F20F001003067306F20F0CB
:101EF00004003067FEF778FD002D054641F2883872
:101F00004FF003070FD000BF306F80073FF524AFBD
:101F1000FEF76AFD401B4045F6D966E0FEF764FD1A
:101F2000401B404561D8306F8007F7D414E704F1B7
:101F30002807B06A40F2F33188438ECF0843591E18
:101F400040EA02104FF47E42B06202EB47206FF38A
:101F50005F214FF4FE0280B2E36B0844A16B02EBF9
:101F600001414FF0FE4201F4FE0102EB036208441E
:101F700002F0FE4108443063F06A4FF6F87120F039
:101F80000100F062706BA26C884340EAC20070638B
:101F9000F06A216C20F00C000843F062F06A616C7A
:101FA00020F002000843F062F06A40F48030F062F2
:101FB000F06A40F40030F062F06A40F48020F06291
:101FC000F06A40F00100F062306840F080703060EC
:101FD000FEF70AFD04460327306880013FF5EBAEAB
:101FE000FEF702FD001B0228F6D9F8B2BDE8F08129
:101FF0002DE9F041002800F09880044643F60006E1
:10200000C4F2000643F20007256843F60048B542D3
:10201000C4F20107C4F200084FF00000A06203D030
:10202000454518BFBD427CD1204601F05DFBB5425D
:1020300018BFBD4269D1102877D894F8810028B91B
:10204000002084F88000204600F072F8022084F816
:1020500081002068A2690168B2F1806F21F001015E
:10206000016009D16168B1F5800F05D1A16B19B983
:10207000016841F480510160E169A36A1943E36B8F
:102080000B43D4E90365D4E9011733438360636BE1
:10209000666A42EA0302A36B42EA060242EA0302CC
:1020A000636942EA0502266A42EA0302E36C42EAF5
:1020B0000602A66C42EA010242EA0302A36D42EA6A
:1020C000070242EA060242EA0302C26049B9826894
:1020D000012363F3CC2282608268022363F34A22E5
:1020E0008260026D490222F00101016505D5C168D7
:1020F000626D21F000411143C1600020C4F88400EA
:10210000012184F88110BDE8F081454518BF0828F9
:102110000BD8B54218BFBD428DD045453FF48BAFBB
:102120008BE7E0680F287FF67FAF0120BDE8F081E4
:1021300080B586B000210591CDE9031143F6000278
:102140000068C4F2000202919042019101D006B0F1
:1021500080BD44F2E040C5F60200826842F480424D
:102160008260826802F480420092009A026842F023
:1021700002020260006800F00200009000984FF434
:10218000444001900220CDE9020103200490052083
:10219000059040F2004001A9C5F60200FEF740FBA1
:1021A00006B080BD000000002DE9F047044690F81D
:1021B0008000012802D10220BDE8F0871D461746A5
:1021C0000E46D4F80090012084F88000FEF70CFC45
:1021D00094F88110012909D1002E18BF002F0BD1CE
:1021E000002084F880000120BDE8F087002084F8FA
:1021F00080000220BDE8F0878046032084F881003B
:102200000020C4F88400E665A4F86070A4F8627049
:102210006066A4F86800A4F86A00A1682067B1F5B8
:10222000C02F606704D12068016841F4006101603B
:10223000D4E900014FF6FF73B1F5800F426822EA3E
:1022400003023A444260026842F00101016003D196
:10225000016841F400710160E168102932D3B4F8DB
:102260006200002800F0A9806E1C0EE0E16D51F8BC
:10227000042B0262E165B4F862000138A4F8620040
:10228000B4F86200002800F098802068416989074E
:10229000ECD4FEF7A9FB002EF2D0A0EB0800A84278
:1022A000EED3204601F0C4F9002084F88000D4F871
:1022B000840040F48070C4F88400012084F8810018
:1022C000BDE8F087B4F86200072933D9002874D03C
:1022D0004FF6FE706E1C471C11E0E06D3946008819
:1022E000A9F820000220E26D1044E065B4F8620015
:1022F0000844A4F86200B4F8620000285DD02068A9
:102300004169890708D4FEF76FFB002EF3D0A0EBDC
:102310000800A842EFD3C4E7B4F862100229DCD366
:10232000E16B0029D9D0E16D0968016204204FF604
:10233000FE71D8E7002840D04FF6FE706E1CA0F169
:10234000020A471C10E0E16D097880F82010012096
:102350003946E26D1044E065B4F862000844A4F820
:102360006200B4F8620040B320684169890708D46C
:10237000FEF73AFB002EF4D0A0EB0800A842F0D301
:102380008FE7B4F86210042908D3E16B412905D323
:10239000E16D0968016204205146DAE7B4F8621081
:1023A0000229D0D3E16B0029CDD0E06D4FF6FE714C
:1023B0000088A9F820000220CBE7204641462A46A3
:1023C00001F09EF928B1D4F8840040F02000C4F850
:1023D0008400204601F02CF9002084F880000120C0
:1023E00084F88100D4F88400002818BF0120BDE8DB
:1023F000F08700000000000080B501F09DF980BD6D
:10240000704700000000000070470000000000005E
:10241000704700000000000060B310B5044690F85B
:102420003D0028B9002084F83C00204600F024F844
:10243000022084F83D002068211D01F075FA01207A
:1024400084F8480084F83E0084F83F0084F8400097
:1024500084F8410084F8420084F8430084F8440082
:1024600084F8450084F8460084F8470084F83D006D
:10247000002010BD0120704780B582B044F60001F5
:102480000068C4F20101884201D002B080BD44F26C
:10249000F0400022C5F60200016841F4802101608D
:1024A0000068022100F48020019001987620FEF758
:1024B00027FB7620FEF720FB02B080BD0000000065
:1024C00090F83D10012913D1022180F83D100168D8
:1024D0000722C0F20102C86840F00100C8608868A5
:1024E00002400020062A18BFB2F5803F02D1704793
:1024F00001207047086840F0010008600020704724
:10250000704700000000000010B504460068016933
:10251000890744BFC1685FEA817140D420680169BE
:10252000490744BFC1685FEA417144D4206801692A
:10253000090744BFC1685FEA017149D42068016995
:10254000C90644BFC1685FEAC1614DD42068016912
:10255000C9071CBFC1685FEAC17152D12068016917
:10256000090644BFC1685FEA016151D4206801696E
:10257000C90544BFC1685FEA016150D420680169A0
:10258000490644BFC1685FEA41614FD420680169D0
:10259000890644BFC1685FEA81614ED410BD6FF007
:1025A0000201016101212177806980074CD020461A
:1025B000FFF7A6FF4EE06FF00401016102212177D1
:1025C000806910F4407F48D02046FFF799FF4AE029
:1025D0006FF00801016104212177C069800745D0AF
:1025E0002046FFF78DFF47E06FF0100101610821E1
:1025F0002177C06910F4407F41D02046FFF780FF6B
:1026000043E06FF001010161204600F049F8A5E7C1
:102610006FF0800101612046FFF7F6FEA6E76FF438
:10262000807101612046FFF7EBFEA7E76FF04001E4
:102630000161204600F054F8A8E76FF02001016125
:102640002046FFF7E5FE10BD204600F021F82046A9
:1026500000F022F80020207760E7204600F018F80C
:10266000204600F019F8002020775FE7204600F0B0
:102670000FF8204600F010F8002020775EE7204693
:1026800000F006F8204600F007F8002020775DE70C
:1026900070470000000000007047000000000000CC
:1026A000B0B582B040F20C11C2F20041884213D1A1
:1026B00040F27805C2F20045286801280CD140F2AA
:1026C000E410A021C2F200407822A02378240094D4
:1026D00000F0D2FC0020286002B0B0BD0000000075
:1026E000704700000000000090F87C10012901D123
:1026F000022070472421C0F8801002681368116816
:1027000023F0005321F001011160002141661360A4
:102710002022C0F8802080F87C1008467047000016
:102720007047000000000000B0B5044690F87C003F
:10273000012801D10220B0BD012084F87C002420B2
:10274000C4F8800020680568026822F00102026077
:10275000826822F0606211438160204601F08CF9AA
:10276000206805602020C4F88000002084F87C00E8
:10277000B0BD000000000000B0B5044690F87C0039
:10278000012801D10220B0BD012084F87C00242062
:10279000C4F8800020680568026822F00102026027
:1027A000826822F0604211438160204601F064F9A2
:1027B000206805602020C4F88000002084F87C0098
:1027C000B0BD0000000000007047000000000000E5
:1027D000704700000000000070470000000000008B
:1027E00070B50368044640F62F00D9691E6808409A
:1027F0009A6820280CD106F0200002F0805540197C
:1028000006D0E16E002900F0A8802046884770BD00
:1028100040F60F00084000F08880012040F22015AB
:10282000C1F20000C0F2004502EA000C06EA050011
:1028300010EB0C0079D0C80718BF16F4807007D0D1
:1028400001201862D4F8880040F00100C4F8880024
:10285000880702F0010E0AD5BEF1000F07D0022052
:102860001862D4F8880040F00400C4F888004807D3
:102870000AD5BEF1000F07D004201862D4F88800F2
:1028800040F00200C4F8880008070CD506F02000CC
:1028900050EA0C0007D008201862D4F8880040F0F5
:1028A0000800C4F8880008050BD516F0806008D031
:1028B0004FF400601862D4F8880040F02000C4F89B
:1028C0008800D4F88800002847D011F0200009D0F3
:1028D00006F0200002F08051401803D0E16E09B1EB
:1028E000204688472068D4F88810806801F02801C5
:1028F00000F0400040183DD0204601F099F92068D2
:102900008168490632D5816821F040018160A06F5D
:1029100060B343F61941C0F600010165FDF714FEEE
:10292000D8B1A06F016D884770BDC80209D512F4F7
:10293000800006D04FF4801018622046FFF748FF51
:1029400070BD08060AD506F0800002F40002801867
:1029500004D0216F00297FF458AF70BD01EA060052
:1029600040060ED5204601F077F970BD2046FFF7EE
:1029700033FF70BD2046FFF72FFF0020C4F888000A
:1029800070BD080206D516F0804003D02046FFF740
:102990001BFF70BDC801E0D5B6F1FF3FC8BF70BDD9
:1029A0002046FFF7BDFE70BD10B5B0B10446D0F8AB
:1029B000800028B9002084F87C00204600F028F828
:1029C0002420C4F880002068016821F00101016022
:1029D000204601F069FA012801D1012010BDA06A4A
:1029E00010B1204601F074F82068416821F490414C
:1029F0004160816821F02A018160016841F0010194
:102A00000160204601F0D4F810BD00000000000075
:102A100080B586B000210591CDE9031144F600424E
:102A20000068C4F2000202919042019101D006B008
:102A300080BD44F2E040C5F60200826842F4002204
:102A40008260826802F400220092009A026842F0DA
:102A5000010202600068022200F00100009000986C
:102A600003200190CDE90221049008200590002068
:102A7000C5F6020001A9FDF7D3FE34200121002292
:102A8000FEF73EF83420FEF737F806B080BD0000B0
:102A900080B5D0F88430202B0AD10123002918BF3B
:102AA000002A01D1184680BD90F87C30012B01D15D
:102AB000022080BD012380F87C3081650021A0F8D0
:102AC0005C20A0F85E20D0F808C0C166BCF1000F01
:102AD0000AD0BCF1805F0BD0BCF5805F0CD10169DE
:102AE00021B940F2FF110AE0016939B9FF2106E07E
:102AF000016919B13F2102E0002100E07F21A0F827
:102B000060100021C0F888102221C0F88410D0F88D
:102B100000E0436EB3F1005FDEF8081041F0010100
:102B2000CEF8081003D1B0F86810914214D9BCF562
:102B3000805F01D10169C9B143F69152C0F600022C
:102B4000C266002380F87C30DEF8000040F490700C
:102B5000CEF80000184680BDBCF5805F01D1016948
:102B600049B143F6F152C0F6000208E043F679425B
:102B7000C0F60002E4E743F6D942C0F60002C2669E
:102B8000002380F87C30DEF8000040F48070CEF83E
:102B90000000DEF8080040F08050CEF8080018462B
:102BA00080BD00000000000010B540F25811C2F2D4
:102BB0000041884218BF10BD40F27C0040F2800402
:102BC000C2F20040C2F2004401780029216800D01E
:102BD00049B1012902D14278FF2A04D1022924D126
:102BE0008278012A21D00022032A226008DC811881
:102BF00040F25810C2F200400122FFF749FF10BD19
:102C000040F2581040F2E411C2F20040C2F200411A
:102C10004FF41642FFF73CFF40F278000121C2F268
:102C2000004001600020206010BDC2784B1C012ACA
:102C30001A4618BF0022032918BF1A46D4E700001D
:102C40007047000000000000FEE7000000000000E8
:102C50002DE9F04F03AF81B040F200480C46C5F6B5
:102C6000020806464FEA410908F540604FF400416A
:102C70000122B9F5FA7F28BF4FF4FA74FDF7A4FEDC
:102C80004FF4805100224046FDF79EFEE01D20F0EB
:102C90000700ADEB0005AD4644B1300A002100BF8E
:102CA0006A1868540231A1425670F9D3B9FBF4FB9B
:102CB0000BFB149A4C450ED840F284090026A4B2AE
:102CC000C2F200490A23484629462246FFF76CFA19
:102CD00001365E45F6D340F284000A231FFA8AF2D9
:102CE000C2F200402946FFF75FFA4FF480510122FB
:102CF0004046FDF769FEA7F10C04A546BDE8F08F3C
:102D000080B540F200404FF40051C5F602000122A8
:102D1000FDF75AFE80BD000070B540F2020540F29A
:102D20000006C2F20045C2F20046044600202A888E
:102D30003388002100F044F9288831884143204637
:102D4000FFF786FF70BD000080B5FFF7D9FF00F0E8
:102D500007F9012000F0F4F94FF47A70FDF74CFD0B
:102D6000CB2000F0EDF9392000F00AFA2C2000F019
:102D700007FA002000F004FA342000F001FA0220E3
:102D800000F0FEF9CF2000F0DBF9002000F0F8F9A8
:102D9000C12000F0F5F9302000F0F2F9E82000F051
:102DA000CFF9852000F0ECF9002000F0E9F9782057
:102DB00000F0E6F9EA2000F0C3F9002000F0E0F9A5
:102DC000002000F0DDF9ED2000F0BAF9642000F0F9
:102DD000D7F9032000F0D4F9122000F0D1F98120B6
:102DE00000F0CEF9F72000F0ABF9202000F0C8F990
:102DF000C02000F0A5F9232000F0C2F9C12000F0A6
:102E00009FF9102000F0BCF9C52000F099F93E2090
:102E100000F0B6F9282000F0B3F9C72000F090F9CF
:102E2000862000F0ADF9362000F08AF9482000F045
:102E3000A7F93A2000F084F9552000F0A1F9B1205B
:102E400000F07EF9002000F09BF9182000F098F9BE
:102E5000B62000F075F9082000F092F9822000F009
:102E60008FF9272000F08CF9F22000F069F900209A
:102E700000F086F9262000F063F9012000F080F9C7
:102E8000E02000F05DF90F2000F07AF9312000F029
:102E900077F92B2000F074F90C2000F071F90E2066
:102EA00000F06EF9082000F06BF94E2000F068F990
:102EB000F12000F065F9372000F062F9072000F0FA
:102EC0005FF9102000F05CF9032000F059F90E20A2
:102ED00000F056F9092000F053F9002000F050F9F5
:102EE000E12000F02DF9002000F04AF90E2000F05A
:102EF00047F9142000F044F9032000F041F91120B3
:102F000000F03EF9072000F03BF9312000F038F9DD
:102F1000C12000F035F9482000F032F9082000F017
:102F20002FF90F2000F02CF90C2000F029F93120A6
:102F300000F026F9362000F023F90F2000F020F9E8
:102F4000112000F0FDF87820FDF756FC292000F054
:102F5000F7F8002000F060F880BD000000000000DD
:102F600010B540F200444FF40051C5F602040022AF
:102F70002046FDF729FDC820FDF73EFC4FF48051A7
:102F800000222046FDF720FDC820FDF735FC4FF458
:102F9000005101222046FDF717FD10BD0000000082
:102FA00080B582B08DF8070040F28400C2F2004084
:102FB0000DF1070101220123FFF7F6F802B080BDF1
:102FC000F0B581B007462A201C4616460D4600F093
:102FD000B7F8380A00F0D4F8F8B200F0D1F8300AA7
:102FE00000F0CEF8F0B200F0CBF82B2000F0A8F8FB
:102FF000280A00F0C5F8E8B200F0C2F8200A00F094
:10300000BFF8E0B200F0BCF82C2000F099F801B055
:10301000F0BD00000000000070B50446362000F04E
:103020008FF80120FDF7E8FB032C21D84FF4A075A1
:10303000F0264820DFE804F01002070CF0254FF4DA
:10304000A076282008E04FF4A075F026882003E041
:10305000F0254FF4A076E82000F092F840F202004C
:10306000C2F20040068040F20000C2F2004005803B
:1030700070BD0000000000002DE9F04F81B0DDF8C8
:1030800028A00E468146581EAAF1010198460092DA
:1030900082B200208BB20021FFF792FFBAF1000F3D
:1030A00020D04FF0000B03E00BF1010BD34519D0FA
:1030B000B8F1000FF8D00098002744460BFB00F051
:1030C000B0FBFAF0704309EB400500BFB7FBF8F026
:1030D00035F8100000BA000C00F00AF8013C374443
:1030E000F4D1E1E701B0BDE8F08F0000000000007E
:1030F00010B582B040F200444FF40041C5F602041E
:10310000012240BAADF8060004F54060FDF75CFC12
:103110004FF4805100222046FDF756FC40F2840017
:103120000DF10601C2F2004002220523FFF73CF830
:103130004FF4805101222046FDF746FC02B010BD3D
:10314000B0B540F200450446C5F602054FF4805183
:1031500000222846FDF738FC05F540604FF4004199
:103160000022FDF731FC2046FFF71AFF4FF4805193
:1031700001222846FDF728FCB0BD00000000000039
:10318000B0B540F200440546C5F602044FF40041D4
:1031900004F540600122FDF717FC4FF48051002236
:1031A0002046FDF711FC2846FFF7FAFE4FF4805148
:1031B00001222046FDF708FCB0BD00000000000021
:1031C0002DE9F04387B044F2E0400027C5F6020045
:1031D0000697CDE90477CDE90277016840F200490E
:1031E00041F0800101600168C5F6020901F080012B
:1031F00001910199016841F001010160016809F53F
:10320000406501F0010101910199016841F010014F
:1032100001600168012201F010010191019901682A
:1032200041F00201016000684FF4004100F002002B
:103230000190019828464FF400464FF00108FDF731
:10324000C3FB4FF4805101224846FDF7BDFB4FF40C
:10325000005100224846FDF7B7FBCDE9026802AEF7
:1032600028463146049703240594FDF7D9FA4FF414
:1032700040503146CDE902084846CDE90474FDF7D7
:10328000CFFA07B0BDE8F08310B540F2840443F6EE
:103290000000C2F20044C4F20000072120604FF495
:1032A000800060600020A060C4E9031060614FF0FE
:1032B0008061A1614FF00051C4E90710C4E9090021
:1032C000E0624FF08040606304F138002421FDF794
:1032D000CBF82046FEF78CFE002808BF10BDFDF796
:1032E0002FF910BD0000000080B540F20C1044F62C
:1032F0000001C2F20040C4F201014FF49672016075
:1033000045F6BF51416000218160C0E90321416160
:1033100080218161FFF780F8002808BF80BDFDF79C
:103320000FF980BD0000000080B540F2581044F64F
:103330000041C2F2004048F68052C4F20001C0F2DF
:103340005B02C0E9001200210C22C0E902110161F8
:10335000C0E90521C0E90711C0E90911FFF724FB05
:1033600008B1FDF7EDF840F258100021C2F200401C
:10337000FFF702FA08B1FDF7E3F840F25810002118
:10338000C2F20040FFF7D0F908B1FDF7D9F840F2DA
:103390005810C2F20040FFF7A7F9002808BF80BD0F
:1033A000FDF7CEF880BD0000FEE700000000000041
:1033B000704700000000000000F007004FF0FF3CE5
:1033C00080F00703042B28BF0423033838BF0020F4
:1033D0000CFA03F399430CFA00F301FA00F022EA25
:1033E0000301084370470000704700000000000020
:1033F000F0B581B044F22C47C5F6020757F8042C0B
:1034000002F00302032A02D1012001B0F0BD0546FB
:1034100057F82C0C0C4620F0806047F82C0CFDF778
:10342000E3FA064657F82C0C000105D5FDF7DCFA47
:10343000801B0228F6D964E057F8040CEE6895E882
:103440000E0020F47C3040EA0130A2F101014FF47B
:103450007E4247F8040C02EB43224FF0FE436FF329
:103460005F2192B202EB01004FF4FE012A6901EBE9
:10347000064101F4FE0103EB0262084402F0FE4142
:103480000844F8603868696920F0C00040EA01002B
:1034900038603868A96920F0200040EA01003860EF
:1034A00038684FF6F87120F0100038603869EA6922
:1034B00020EA010040EAC2003861386840F010009C
:1034C00038602CB1012C386806D140F4801005E03A
:1034D000386840F4002001E040F40010386057F8EC
:1034E0002C0C40F0806047F82C0CFDF77DFA044668
:1034F00057F82C0C000107D4FDF776FA001B0328BF
:10350000F6D3032001B0F0BD002001B0F0BD0000F3
:10351000F0B581B044F22C47C5F6020757F8042CE9
:1035200002F00302032A02D1012001B0F0BD0546DA
:1035300057F82C0C0C4620F0805047F82C0CFDF767
:1035400053FA064657F82C0C800005D5FDF74CFAC7
:10355000801B0228F6D964E057F8040CEE6895E861
:103560000E0020F07C7040EA0150A2F101014FF4FE
:103570007E4247F8040C02EB43224FF0FE436FF308
:103580005F2192B202EB01004FF4FE012A6901EBC8
:10359000064101F4FE0103EB0262084402F0FE4121
:1035A000084478613868696920F4406040EA0100A5
:1035B00038603868A96920F4007040EA010038607A
:1035C00038684FF6F87120F480703860B869EA699D
:1035D00020EA010040EAC200B861386840F4807017
:1035E00038602CB1012C386806D140F4000005E0A9
:1035F000386840F4800001E040F08070386057F88F
:103600002C0C40F0805047F82C0CFDF7EDF90446E7
:1036100057F82C0C800007D4FDF7E6F9001B0328AF
:10362000F6D3032001B0F0BD002001B0F0BD0000D2
:10363000016840F26F32D1F814C08B6943F008037F
:103640008B618B6943F010038B610B6823F00103DE
:103650000B600B6923EA02020A618A6822F4404285
:103660008A6090F881305FEA8C620BD5042B09D018
:10367000D0F8842042F08002C0F884208A6942F0A9
:1036800020028A6190F881305FEA4C620BD5032BEF
:1036900009D0D0F8842042F00402C0F884208A695E
:1036A00042F040028A615FEA8C5209D5D0F884204A
:1036B00042F00102C0F884208A6942F400728A61F3
:1036C0005FEACC5209D5D0F8842042F00802C0F855
:1036D00084208A6942F480728A610021A0F8621015
:1036E000A0F86A1070470000C16B0122C068083062
:1036F00002EB5111C0084843704700000000000071
:10370000F0B581B014460D460646571C3068406936
:10371000000709D4FDF768F9002FF7D0401BA0423D
:10372000F4D3032001B0F0BD002001B0F0BD0000D3
:103730007047000000000000B0B501380024B4EB71
:10374000106F01D00120B0BD4EF210050F21CEF256
:10375000000568604FF0FF3000F0DAFEAC60072033
:1037600028602046B0BD000080B5FDF745F980BD5A
:10377000B0B5CCB044F6180439A84C21C5F6020403
:10378000FCF772FE02A8BC210025CDE93755CDE932
:103790003555CDE93355CDE93155FCF765FE0220AD
:1037A000FDF7C2F90195206840F440402060206890
:1037B00000F44040019040F22C40C5F60000016842
:1037C00041F001010160006800F0010001900198E2
:1037D00020688004FCD5012039904FF480303A9065
:1037E00002200521CDE942004491C021CDE94510D8
:1037F000CDE9470039A8082549950024CDE94A4478
:10380000FEF792F932A93F203190032031C14020C8
:103810004FF48061CDE93500CDE9371031A804219E
:10382000FDF786FF41F20200029002A819941F944E
:10383000FDF7DAFA4CB0B0BD80B54EF6885C42F2C6
:10384000000ECEF2000CC5F2002EDCF8001041F4A0
:103850007001CCF80010DEF8001001F00F0106290D
:1038600006D8DEF80010072262F30301CEF800103C
:1038700044F200414EF67F53C5F60201CEF6F62320
:103880000A6842F001020A6000220A6108681840D2
:103890000860DEF80000000706D5DEF80000072308
:1038A00063F30300CEF8000040F200208A61CA6191
:1038B000C0F202200A6288620020C0F2FF10C862D3
:1038C00040F28020C0F2011008634A638863CA6333
:1038D00008644A64086820F48020086041F200000F
:1038E0000A66C5F600400068B2EB507F05D148F289
:1038F00008100121C5F20010016044F2000043F2FB
:10390000D201C5F2002001604FF000604CF8800C3D
:1039100080BD00000000000080B540F20C10C2F233
:103920000040FEF7F1FD80BD10B540F6FF32C4F255
:103930000002904202680FDCB0F1804F1DD040F2CF
:103940000043C4F20003984217D040F60003C4F2CB
:103950000003984211D014E040F60043C4F2000383
:1039600098420AD040F20043C4F20103984204D0C6
:103970000023C4F20103984203D122F070024B6885
:103980001A434FF6FF7343F6FF7CC4F20003C4F200
:10399000010C984210DD60451ADD44F20003C4F2C8
:1039A000010398422CD044F60003C4F2010398426C
:1039B00026D044F2004312E040F2FF73C4F2000349
:1039C000984211DCB0F1804F1AD040F2004313E06E
:1039D0000023C4F20103984212D040F20043C4F223
:1039E000010398420CD00FE040F60003C4F200033C
:1039F000984205D040F60043C4F20003984203D138
:103A000022F44072CB681A4322F080024C69604570
:103A1000D1F800E08B6842EA04020260C362C0F899
:103A200028E00EDD44F20002C4F20102904213D0FD
:103A300044F60002C4F2010290420DD044F200426A
:103A400006E00022C4F20102904205D040F200429A
:103A5000C4F20102904201D109690163012141616F
:103A600010BD00000000000080B540F25810C2F206
:103A70000040FEF7B5FE80BD10B5416E01B3016890
:103A800044F2E85CC0F6000C44F2F05E8A68C0F6CE
:103A9000000EC2F3426289684C0F1CF802301EF817
:103AA00002101A011EF80430B2FBF1F11CF80420D8
:103AB000A0F868101201B2FBF3F2A0F86A2010BD62
:103AC0000121A0F86A10A0F8681010BD00000000E5
:103AD000816ACA070CD18A0715D44A071ED40A077F
:103AE00027D4CA0630D48A0639D44A0655D541E0CF
:103AF0000268D0F82CC0536823F4003343EA0C0367
:103B000053608A07E9D50268D0F830C0536823F4BF
:103B1000803343EA0C0353604A07E0D50268D0F8CB
:103B200034C0536823F4802343EA0C0353600A072C
:103B3000D7D50268D0F838C0536823F4004343EA6D
:103B40000C035360CA06CED50268D0F83CC0936817
:103B500023F4805343EA0C0393608A06C5D50268B8
:103B6000D0F840C0936823F4005343EA0C039360F9
:103B70004A0612D50268D0F844C0BCF5801F5368CD
:103B800023F4801343EA0C03536006D1536823F4F3
:103B9000C00C836C43EA0C035360090658BF70479E
:103BA0000168C06C4A6822F40022104348607047E4
:103BB000B0B582B004460020C4F88800FCF714FFBA
:103BC00021680546096809070AD54FF4001100224B
:103BD0006FF07E40009020462B4600F021FC70B92B
:103BE0002068006840070DD54FF4800100226FF077
:103BF0007E40009020462B4600F012FC10B10320BE
:103C000002B0B0BD2020C4F88000C4F884000020B9
:103C100084F87C0002B0B0BD80B5806B0021A0F8B4
:103C20005E10A0F85610FEF7D7FD80BD0000000022
:103C300001684FF6FE73CEF6FF730A6822F49072A5
:103C40000A608A681A408A602021C0F88410002126
:103C5000C16670470000000080B501680A6822F064
:103C600040020A602021C0F8801000210167FEF7A1
:103C7000E7FF80BD0000000080B5B0F8602001685B
:103C8000D0F88430222B21D1D1F824C0836D02EAF0
:103C90000C0223F8022B8365B0F85E20013AA0F8ED
:103CA0005E20B0F85E20002A18BF80BD0A6822F4AA
:103CB00090720A608A6822F001028A602021C0F8AE
:103CC00084100021C166FEF76FFF80BD886940F057
:103CD0000800886180BD00002DE9F04381B00446F2
:103CE000B0F86050D0F8840022282DD1B4F8686074
:103CF00096B34FF6FE784FF02009CEF6FF780027F6
:103D000003E000BF013E300426D02068A16D426A66
:103D10002A4021F8022BA165B4F85E100139A4F8FD
:103D20005E10B4F85E100029ECD1016821F48071B6
:103D30000160816801EA080181602046C4F884902E
:103D4000E766FEF731FFDDE72068816941F0080191
:103D5000816101B0BDE8F083B4F85E000028F8D0BE
:103D6000B4F868108842F4D22068816821F080514C
:103D7000816043F67941C0F60001E166016841F0D7
:103D80002001016001B0BDE8F083000000000000E8
:103D900080B5B0F860100268D0F88430222B21D1B1
:103DA000526A836D11401970816D01318165B0F8DF
:103DB0005E100139A0F85E10B0F85E10002918BF3F
:103DC00080BD01680A6822F490720A608A6822F055
:103DD00001028A602021C0F884100021C166FEF72C
:103DE000E3FE80BD906940F00800906180BD000056
:103DF0002DE9F04381B00446B0F86050D0F884005B
:103E000022282FD1B4F86860A6B34FF6FE784FF0A1
:103E10002009CEF6FF78002703E000BF013E300402
:103E200028D02068A16D406A28400870A06D01303C
:103E3000A065B4F85E000138A4F85E00B4F85E0036
:103E40000028EBD12068016821F48071016081684D
:103E500001EA080181602046C4F88490E766FEF715
:103E6000A3FEDBE72068816941F00801816101B0B0
:103E7000BDE8F083B4F85E000028F8D0B4F868100C
:103E80008842F4D22068816821F08051816043F635
:103E90009151C0F60001E166016841F02001016026
:103EA00001B0BDE8F0830000F0B583B004460368BC
:103EB000806846F6F316D4E9031210436269104392
:103EC000E2691043626E1F68CCF6FF76104307EA82
:103ED00006021043186058684FF2FF4720F4405222
:103EE00040F6004011435960C5F60000A1698342C5
:103EF000C1F2FF171CBF226A11439A6847F2FF768E
:103F00003A40C4F2000611439960DA6A44F254411F
:103F100022F00F02676AC5F602013A43B342DA6241
:103F20004FF0800225DD40F6FF77C4F20107BB4267
:103F30003FDD834200F0718041F20047C4F2010787
:103F4000BB4200F0758041F20007C4F20107BB429A
:103F500040F0A5800A68C2F3C203052B00F29680E8
:103F60000122DFE813F09C00910095009700990072
:103F70009B0044F6FF37C4F20007BB4233DC44F237
:103F80000047C4F20007BB4200F05D8044F6000722
:103F9000C4F20007BB4240F082800A6802F00703C7
:103FA000052B00F273800022DFE803F0796E727453
:103FB000767847F60007C4F20007BB4200F04E8057
:103FC00047F60047C4F20007BB4240F068800A6829
:103FD00002F00703052B00F259800022DFE803F00E
:103FE0005F54585A5C5E44F60047C4F20007BB4277
:103FF00000F03F8045F20007C4F20007BB4240F0EA
:104000004E800A6802F00703052B00F23F80002271
:10401000DFE803F0453A3E4042444A6802F00703B5
:10402000052B33D80222DFE803F03A2F3335373936
:104030000A68C2F3C203052B28D80122DFE803F087
:104040002F24282A2C2E0A6802F00703052B1DD8DE
:104050000022DFE803F024191D1F21230A6802F063
:104060000703052B12D80022DFE803F0190E121403
:1040700016180A6802F00703052B07D80022DFE8AC
:1040800003F00E0307090B0D042208E0802206E06E
:10409000082204E0102202E0202200E040222368EF
:1040A000834240F60010C0F23D0000F05380E36907
:1040B000B3F5004F40F07880402A00F21A810025C5
:1040C000DFE812F041001201170117011B0117016F
:1040D000170117011F011701170117011701170118
:1040E0001701170126011701170117011701170101
:1040F0001701170117011701170117011701170100
:1041000017011701340117011701170117011701D2
:1041100017011701170117011701170117011701DF
:1041200017011701170117011701170117011701CF
:1041300017011701170117011701170117011701BF
:104140001701170131010025FDF742FC002840F05E
:10415000EF8040E1931E1E2B00F274800027DFE801
:1041600013F01F0077007A007700770077007E0059
:104170007700770077007700770077007700B80046
:104180007700770077007700770077007700770077
:10419000770077007700770077007700770083005B
:1041A0000027FCF7E5FC5FE0402A00F2E1800025F3
:1041B000DFE812F04100D900DE00DE00E200DE00A0
:1041C000DE00DE00E600DE00DE00DE00DE00DE00F7
:1041D000DE00DE00ED00DE00DE00DE00DE00DE00E0
:1041E000DE00DE00DE00DE00DE00DE00DE00DE00DF
:1041F000DE00DE00FB00DE00DE00DE00DE00DE00B2
:10420000DE00DE00DE00DE00DE00DE00DE00DE00BE
:10421000DE00DE00DE00DE00DE00DE00DE00DE00AE
:10422000DE00DE00DE00DE00DE00DE00DE00DE009E
:10423000DE00DE00F8000025FDF7CAFB002840F094
:10424000B580C8E0402A03D14FF4004000270BE0BE
:104250000020012708E06846FCF79EFC02E0684663
:10426000FCF72EFD0027019878B3616A44F2D05222
:10427000C0F600026668012532F8112006EB4603FD
:10428000B0FBF2F19942C0F0A6803303994200F2EC
:10429000A28000210023FCF76FF80902002341EA05
:1042A00010613246000210EB560041F10001FCF7AC
:1042B00063F84FF6FF42A0F54071C0F20F02914241
:1042C00005D821683D46C86085E03D4683E001256C
:1042D00081E051F8540C800649F20000C0F2D03061
:1042E00000F182800027BFE70025FDF785FBF8B9C4
:1042F00071E000200125D8B96DE06846FCF74CFC60
:1043000002E06846FCF7DCFC0025019880B962E019
:1043100051F8540C800649F20000C0F2D0306AD443
:10432000002528B957E04FF400400025002852D05E
:10433000616A44F2D052C0F6000232F8111062688D
:10434000B0FBF1F0510801EB4000B0FBF2F14FF689
:10435000F070084005D0C1F3420122680843D060E4
:1043600039E0012537E00025FDF746FBF0B932E0E2
:1043700000200125D0B92EE06846FCF70DFC02E0D4
:104380006846FCF79DFC0025019878B923E051F8B8
:10439000540C800649F20000C0F2D03035D400251C
:1043A00020B918E04FF400400025A0B1616A44F242
:1043B000D052C0F6000232F811106268B0FBF1F082
:1043C00000EB5200B0FBF2F080B2102802D321685B
:1043D000C86000E001254FF00110A0660020C4E98C
:1043E0001B00284603B0F0BD51F8541C0027C1F350
:1043F000C101C84038E751F8541C0025C1F3C10180
:10440000C84000287FF494AFE5E751F8541C00251C
:10441000C1F3C101C8400028C8D1DCE7000000009A
:104420002DE9F04381B004460068C0690840401A95
:10443000B0FA80F04009904237D1DDF820800D4677
:104440001646994608F1010709E000BF2068C069D7
:104450002840401BB0FA80F04009B04225D1002F1F
:10446000F4D0FCF7C1FA2168B8F1000F0A6820D037
:10447000A0EB090040451CD8500744BFC8695FEA5B
:104480000050E3D54FF400600862086820F4D07053
:104490000860886820F0010088602020C4F880004F
:1044A000C4F88400C4F888000FE0002001B0BDE823
:1044B000F08322F4D0700860886820F001008860E2
:1044C0002020C4F88000C4F88400002084F87C0018
:1044D000032001B0BDE8F083FEE70000000000000B
:1044E000002848BF70474EF2001300F01F0140093A
:1044F000CEF20003012202FA01F143F820107047C6
:104500004EF60C50CEF200000068C0F30220704757
:104510004EF6145300F00F02CEF20003B0F1FF3F4D
:104520001A4400F16043C8BF03F5644208011070EB
:1045300070470000000000004EF60C514FF6FF03DC
:10454000CEF200010A681A4060F30A2242F080604D
:1045500040F0FD7008607047FCF75EFAFFF708F95D
:10456000FEF72EFEFEF790FEFEF7BEFEFEF7DCFE27
:1045700040F2581040F27C01C2F20040C2F2004109
:104580000122FEF785FAFEF7DFFB4FF6FF70FEF71C
:10459000C3FB0320FEF740FD40F20C10C2F20040C6
:1045A000FDF78EFFFEE7F1EE100A4FF6FF71C0F245
:1045B000C03120EA010040F04070E1EE100A70477F
:1045C00000000000010203040102030406070809B9
:1045D000010002000400060008000A000C001000A0
:1045E00020004000800000010101010307010000DC
:1045F0000804020408010101184600080000002414
:1046000018000000D40200083046000818000024FA
:10461000D0B70000F0020008F00040010090D00385
:104620000090D00301000000100000000000000016
:040000050800029954
:00000001FF
