:0200000470008A
:10000000464346420004015600000000010303007D
:1000100000000000000000000000000000000000E0
:1000200000000000000000000000000000000000D0
:1000300000000000000000000000000000000000C0
:1000400000000000000408000000000000000000A4
:100050000000400000000000000000000000000060
:100060000000000000000000000000000000000090
:100070000000000000000000000000000000000080
:10008000EB04180A063204260000000000000000FD
:100090000000000000000000000000000000000060
:1000A0000000000000000000000000000000000050
:1000B0000000000000000000000000000000000040
:1000C0000000000000000000000000000000000030
:1000D0000000000000000000000000000000000020
:1000E0000000000000000000000000000000000010
:1000F0000000000000000000000000000000000000
:1001000000000000000000000000000000000000EF
:1001100000000000000000000000000000000000DF
:1001200000000000000000000000000000000000CF
:1001300000000000000000000000000000000000BF
:1001400000000000000000000000000000000000AF
:10015000000000000000000000000000000000009F
:10016000000000000000000000000000000000008F
:10017000000000000000000000000000000000007F
:10018000000000000000000000000000000000006F
:10019000000000000000000000000000000000005F
:1001A000000000000000000000000000000000004F
:1001B000000000000000000000000000000000003F
:1001C000000100000010000000000000000000001E
:1001D000000001000000000000000000000000001E
:1001E000000000000000000000000000000000000F
:1001F00000000000000000000000000000000000FF
:0200000470008A
:10100000D10020410020007000000000301000706E
:1010100020100070001000700000000000000000B0
:10102000000000700000400000000000FFFFFFFF14
:10103000D2043041CC03AC04400FC068FFFFFFFF77
:10104000400FC06CFFFFFFFF400FC070FFFFFFFFAE
:10105000400FC074FFFFFFFF400FC078FFFFFFFF8E
:10106000400FC07CFFFFFFFF400FC080FFFFFFFF6E
:10107000400D803000002001400D8100001D000067
:10108000400FC01400010D40401F801400000000FC
:10109000401F801800000000401F801C000000005E
:1010A000401F802000000000401F8024000000003E
:1010B000401F802800000000401F802C000000001E
:1010C000401F803000000000401F803400000000FE
:1010D000401F803800000000401F803C00000000DE
:1010E000401F804000000000401F804400000000BE
:1010F000401F804800000000401F804C000000009E
:10110000401F805000000000401F8054000000007D
:10111000401F805800000000401F805C000000005D
:10112000401F806000000000401F8064000000003D
:10113000401F806800000000401F806C000000001D
:10114000401F807000000000401F807400000000FD
:10115000401F807800000000401F807C00000000DD
:10116000401F808000000000401F808400000000BD
:10117000401F808800000000401F808C000000009D
:10118000401F809000000000401F8094000000007D
:10119000401F809800000000401F809C000000005D
:1011A000401F80A000000000401F80A4000000003D
:1011B000401F80A800000000401F80AC000000001D
:1011C000401F80B000000010401F80B400000000ED
:1011D000401F80B800000000401F8204000110F989
:1011E000401F8208000110F9401F820C000110F915
:1011F000401F8210000110F9401F8214000110F9F5
:10120000401F8218000110F9401F821C000110F9D4
:10121000401F8220000110F9401F8224000110F9B4
:10122000401F8228000110F9401F822C000110F994
:10123000401F8230000110F9401F8234000110F974
:10124000401F8238000110F9401F823C000110F954
:10125000401F8240000110F9401F8244000110F934
:10126000401F8248000110F9401F824C000110F914
:10127000401F8250000110F9401F8254000110F9F4
:10128000401F8258000110F9401F825C000110F9D4
:10129000401F8260000110F9401F8264000110F9B4
:1012A000401F8268000110F9401F826C000110F994
:1012B000401F8270000110F9401F8274000110F974
:1012C000401F8278000110F9401F827C000110F954
:1012D000401F8280000110F9401F8284000110F934
:1012E000401F8288000110F9401F828C000110F914
:1012F000401F8290000110F9401F8294000110F9F4
:10130000401F8298000110F9401F829C000110F9D3
:10131000401F82A0000110F9401F82A4000110F9B3
:10132000401F82A8000110F9402F000010000004A7
:10133000402F000800030524402F000C060305245D
:10134000402F00108000001B402F00148200001B63
:10135000402F00188400001B402F001C8600001B3B
:10136000402F002090000021402F0024A0000019F1
:10137000402F0028A8000017402F002CA900001BB8
:10138000402F003000000021402F0004000079A809
:10139000402F004000000F31402F004400652922FB
:1013A000402F004800010920402F004C50210A081E
:1013B000402F008000000021402F00840088888892
:1013C000402F009400000002402F00980000000011
:1013D000402F009080000000402F009CA55A000F75
:1013E000CF000C1C402F003C00000001CC00140476
:1013F000402F009080000000402F009CA55A000C58
:10140000CF000C1C402F003C00000001CC00140455
:10141000402F009080000000402F009CA55A000C37
:10142000CF000C1C402F003C00000001CC001C042D
:10143000402F00A000000033402F009080000000EB
:10144000402F009CA55A000ACF000C1C402F003CE6
:1014500000000001CC000C04402F004C50210A0970
:0200000470008A
:102000000000072015240070916D0080094B0080AE
:10201000896D008009100080E1D30080000000007D
:10202000000000000000000000000000D1730080EC
:10203000F93A008000000000396F0080D1820080F2
:1020400073240070772400707B2400707F2400705C
:1020500083240070872400708B2400708F2400700C
:1020600093240070972400709B2400709F240070BC
:10207000A3240070A7240070AB240070AF2400706C
:10208000B324007043250070432500704325007081
:10209000B7240070BB240070BF240070C3240070FC
:1020A000C7240070CB240070CF240070D3240070AC
:1020B000D7240070DB240070DF240070E32400705C
:1020C000E7240070EB240070EF240070F32400700C
:1020D000F7240070FB240070432500704325007036
:1020E000432500704325007043250070212800809F
:1020F0004325007043250070432500704325007080
:10210000432500704325007043250070432500706F
:10211000432500704325007043250070432500705F
:10212000FF24007003250070072500700B25007048
:102130000F25007043250070432500704325007073
:10214000432500704325007043250070432500702F
:10215000432500704325007043250070432500701F
:10216000432500704325007043250070432500700F
:1021700043250070432500704325007043250070FF
:10218000432500704325007041410080A941008033
:10219000D94100804325007043250070432500701D
:1021A000432500704325007013250070172500702B
:1021B00043250070432500704325007043250070BF
:1021C00043250070432500704325007043250070AF
:1021D000432500704325007043250070432500709F
:1021E0004325007043250070432500701B250070B7
:1021F0001F250070432500702325007027250070DF
:1022000069D3008051D300802B250070C13D008030
:10221000432500704325007043250070432500705E
:102220004325007043250070916E008043250070A7
:10223000432500704325007043250070432500703E
:10224000432500704325007043250070432500702E
:10225000432500704325007043250070432500701E
:10226000432500704325007043250070432500700E
:1022700043250070432500704325007043250070FE
:1022800043250070432500704325007043250070EE
:1022900043250070432500704325007043250070DE
:1022A00033250070372500703B25007043250070F2
:1022B0003F250070432500704325007043250070C2
:1022C00043250070432500704325007043250070AE
:1022D000432500704325007043250070432500709E
:1022E000432500704325007043250070432500708E
:1022F000432500704325007043250070432500707E
:10230000432500704325007043250070432500706D
:10231000432500704325007043250070432500705D
:10232000432500704325007043250070432500704D
:10233000432500704325007043250070432500703D
:10234000432500704325007043250070432500702D
:10235000432500704325007043250070432500701D
:10236000432500704325007043250070432500700D
:1023700043250070432500704325007043250070FD
:1023800043250070432500704325007043250070ED
:1023900043250070432500704325007043250070DD
:1023A00043250070432500704325007043250070CD
:1023B00043250070432500704325007043250070BD
:1023C00043250070432500704325007043250070AD
:1023D000432500704325007043250070432500709D
:1023E000432500704325007043250070432500708D
:1023F000432500704325007043250070FFFFFFFF59
:10240000DFF80CD000F018F900480047C9780180C7
:10241000000007204C484AF6AF21CAF6AA21016005
:102420004A48016841F00401016049480168C0F26E
:1024300000014FF007024FF00A034FEA02424FEA51
:10244000035342EA0301016072B642484249016007
:102450000A6882F308884148804762B640480047CE
:10246000FEE7FEE7FEE7FEE7FEE7FEE7FEE7FEE744
:10247000FEE73C4800473C4800473C4800473C4892
:1024800000473C4800473C4800473C4800473C4820
:1024900000473C4800473C4800473C4800473C4810
:1024A00000473C4800473C4800473C4800473C4800
:1024B00000473C4800473C4800473C4800473C48F0
:1024C00000473C4800473C4800473C4800473C48E0
:1024D00000473C4800473C4800473C4800473C48D0
:1024E00000473C4800473C4800473C4800473C48C0
:1024F00000473C4800473C4800473C4800473C48B0
:1025000000473C4800473C4800473C4800473C489F
:1025100000473C4800473C4800473C4800473C488F
:1025200000473C4800473C4800473C4800473C487F
:1025300000473C4800473C4800473C4800473C486F
:1025400000473C480047000044C00A4040C00A40E1
:1025500038C00A4008ED00E00020007061260070DD
:10256000012400702933008059350080A93500808E
:10257000F93500804936008099360080E9360080C0
:102580003937008089370080D9370080793300805F
:10259000C93300801934008069340080B934008068
:1025A0000935008043250070095E0080395E008097
:1025B000695E0080995E0080C95E0080F95E0080DF
:1025C000295F0080595F0080E94B0080F94B008053
:1025D000114C0080294C0080D94C0080214D008096
:1025E000694D0080B14D008011100080691000809D
:1025F000416F0080E96F008091700080E970008079
:10260000C97200803140008039400080432500704D
:102610004325007081D30080B1D30080D13E00807B
:1026200043250070B13D008043250070C11000803B
:102630004140008043250070064C074D06E0E068ED
:1026400040F0010394E8070098471034AC42F6D3F9
:10265000FFF7DAFED028007010290070000000009B
:1026600080B588B04EF68850CEF20000016841F483
:10267000700101604FF4806002904FF000400490C0
:1026800042F20000C7F20000039002988008019017
:10269000FFE70198411E0191002808D0FFE7039849
:1026A000019950F82100049A42F82100F1E70498BA
:1026B0004EF60851CEF20001086048F20800C4F25C
:1026C0000B00018821F0010101800820C4F20D00F7
:1026D000018821F00101018048F20000C4F20B00E2
:1026E00000884007002809D5FFE748F20000C4F23F
:1026F0000B00018821F004010180FFE70020C4F2F3
:102700000D0000884007002808D5FFE70020C4F22C
:102710000D00018821F004010180FFE74CF2000068
:10272000C4F20B000068800400280AD5FFE74CF2D1
:102730000400C4F20B004CF22051CDF628110160C8
:102740000AE04CF20400C4F20B004CF2205101608C
:102750004DF628110160FFE74CF20800C4F20B00AF
:102760004FF6FF7101604CF20000C4F20B000168EB
:1027700041F0200121F0800101604EF21000CEF204
:1027800000000068C007002809D0FFE74EF21000E3
:10279000CEF20000016821F001010160FFE74EF672
:1027A0001450CEF20000006800F40030B0F5003F95
:1027B00026D0FFE74EF61450CEF2000000688003EA
:1027C000002801D5FFE71AE0BFF34F8FBFF36F8FEB
:1027D0004EF65070CEF2000000210160BFF34F8F23
:1027E000BFF36F8F4EF61450CEF20000016841F433
:1027F00000310160BFF34F8FBFF36F8FFFE7FFE73B
:102800004EF61450CEF20000006800F48030B0F5AF
:10281000803F48D0FFE74EF61450CEF2000000682B
:10282000C003002801D5FFE73CE04EF68450CEF20D
:10283000000000210160BFF34F8F4EF68050CEF2B2
:102840000000006807900798C0F34E300690FFE73D
:102850000798C0F3C9000590FFE706980599890716
:1028600060F34D114EF66070CEF2000001600598E5
:10287000411E05910028F0D1FFE70698411E069100
:102880000028E5D1FFE7BFF34F8F4EF61450CEF28C
:102890000000016841F480310160BFF34F8FBFF346
:1028A0006F8FFFE7FFE700F003F808B080BD00007E
:1028B000704702E008C8121F08C1002AFAD1704709
:1028C0007047002001E001C1121F002AFBD17047B0
:1028D0001029007000040080B09F0100B228007031
:1028E00000D001700000002000080000B228007035
:1028F00000D8017000080020DC920100C22800709E
:1029000000D8017000002020002C0100C2280070B7
:102910002DE9F05F0546002092469B468846064614
:10292000814640241BE0284641464746224600F0A7
:10293000B2F853465A46C01A914110D31146184670
:10294000224600F099F82D1A67EB01084F462246FF
:102950000120002100F090F817EB00094E41201EE5
:10296000A4F10104DFDC484631462A464346BDE86F
:10297000F09F2DE9F0410024061B254671F1000669
:1029800005DA01240027D0EB070067EB0101161ED2
:1029900073F1000605DA0027D2EB0702012567EB89
:1029A0000303FFF7B5FF86460E4617469C46AC422A
:1029B00004D00025D0EB050E65EB010624B1002004
:1029C000D2EB000760EB030C704631463A46634693
:1029D000BDE8F081D2B201E000F8012B491EFBD224
:1029E00070470022F6E710B513460A46044619461A
:1029F000FFF7F0FF204610BD421C10F8011B002914
:102A0000FBD1801A70473EB5CA17CB0F0024504047
:102A10005140C0186141DA0740F233430094CDE9D8
:102A200001232246234600F055F803B030BD70B5AF
:102A3000C1F30A5201F000450024C1F3130140F232
:102A4000FF3341F480119A4202DA0020014670BD42
:102A500040F233439A42A2F2334203DC524200F086
:102A60001AF801E000F008F82C43F0D00023D0EB76
:102A7000030063EB010170BD202A04DB203A00FA59
:102A800002F1002070479140C2F1200320FA03F3C5
:102A9000194390407047202A04DB203A21FA02F0C3
:102AA0000021704721FA02F3D040C2F12002914088
:102AB00008431946704710B5141E73F1000408DA74
:102AC000401C41F1000192185B411A4301D120F0F2
:102AD000010010BD2DE9F04D92469B4611B1B1FAAF
:102AE00081F202E0B0FA80F220329046FFF7C4FF94
:102AF00004460F4640EA0A0041EA0B0153465A4693
:102B0000084313D0114653EA010019D0C8F140021E
:102B10005046FFF7C0FF05460E465046594642460E
:102B2000FFF7AAFF084305D0012004E020463946FC
:102B3000BDE8F08D0020054346EAE0762C4337439C
:102B40000A986305E40AA0EB08000022FD0A44EAA3
:102B500047540A3002D500200146E9E70105101963
:102B60006941DDE9084500196941BDE8F04DA2E77A
:102B700070B521F0004303430CD0C1F30A55002483
:102B8000D5EB040564EB0403D617AD1AB34102DBA1
:102B90000020014670BD201841EB025170BD70B598
:102BA0008C1810F8015B15F0070301D110F8013BF8
:102BB0002A1106D110F8012B03E010F8016B01F87F
:102BC000016B5B1EF9D12B0705D40023521E0DD4D7
:102BD00001F8013BFAE710F8013BCB1A921C03E025
:102BE00013F8015B01F8015B521EF9D5A142D8D35D
:102BF000002070BD00000000BFF35F8F4EF6245030
:102C0000CEF20000016821F4803101604EF694504C
:102C1000CEF20000016821F0010101607047000060
:102C200081B00090009840F001004EF69451CEF231
:102C3000000108604EF62450CEF20000016841F415
:102C400080310160BFF34F8FBFF36F8F01B07047CA
:102C500080B58AB04FF4004001F022FF48F2C02056
:102C6000C4F20D00016841F480310160016821F473
:102C70000031016043F20060C0F26E1001F01CFFF1
:102C8000002001F095FC01F0D7FC0120099001F033
:102C90001FFF4CF20000C4F20F0001687F2262F3B4
:102CA0000701016046F61840C8F20000099901F0DA
:102CB000FBFD43F61410C1F20040099901F0F4FD48
:102CC0000C20C4F208000168132262F304010160C1
:102CD000FFE70020C4F20800006800F00040B0F1F7
:102CE000004F01D0FFE7F4E749F6AC00C8F201005D
:102CF00001F02AFC00F020FE48F20000C4F20D00B2
:102D00000D21C0F2700101220890079201F0A4FE8B
:102D100048F27010C4F20D00016821F40041016016
:102D2000016821F40001016048F27001C4F20D0154
:102D30000A6842F400520A60069000F015FE48F25C
:102D4000A000C4F20D00016841F4803101600699D1
:102D50000A6822F040420A60026842F400520260AF
:102D600000F0F2FD0D21C0F2E0010898079A01F091
:102D700073FE48F2E000C4F20D000168079A62F3A6
:102D800001010160016841F400510160016821F016
:102D90000C010160016841F480110160016841F497
:102DA0000011016000F0D8FD0D21C0F2200108984B
:102DB000079A01F051FE48F22000C4F20D000168AC
:102DC00041F4005101604EF61420C0F20040002191
:102DD000059101F091FC4FF4887000F0CDFD4FF4A7
:102DE000847000F0C9FD40F2162000F0C5FD4FF4DC
:102DF000067000F0C1FD46F61400C8F20000032181
:102E0000049101F079FC4EF21000C4F20000079921
:102E100001F072FC47F21820C8F20000049901F09A
:102E200043FD43F61410C1F20040059901F03CFD4A
:102E30004FF61430C8F20000059901F05DFC46F62B
:102E40001840C8F20000059901F02EFD4FF48A7079
:102E500000F092FD4FF48B7000F08EFD182000F012
:102E60008BFD1A2000F088FD4FF4867000F084FD81
:102E70004EF21C00C8F20700079901F03DFC42F237
:102E80001C60C8F20000059901F00EFD40F20260DE
:102E900000F072FD4EF62430C8F20000079901F0F0
:102EA0002BFC43F21C00C8F20000059901F0FCFC69
:102EB00040F2046000F060FD4FF22400C8F2000010
:102EC000079901F019FC43F21C10C8F200000599A3
:102ED00001F0EAFC40F20A6000F04EFD4FF21C7077
:102EE000C8F20000059901F007FC47F61C50C8F233
:102EF0000000049901F0D8FC40F2022000F03CFDF3
:102F00004EF63C30C8F20000079901F0F5FB46F69A
:102F10003C10C8F20000059901F0C6FC4FF4807027
:102F200000F02AFD4FF4817000F026FD4FF482700E
:102F300000F022FD4FF4837000F01EFD4FF61820C4
:102F4000C8F20000042101F0D7FB46F21840C8F295
:102F500000000221039101F0A7FC162000F00CFDF7
:102F600047F62410C8F20000039901F0C5FB46F6AD
:102F70001860C8F20000039901F096FC40F212506C
:102F800000F0FAFC4EF22860C8F20000049901F04B
:102F9000B3FB4EF22800C8F20700079901F0ACFB22
:102FA00046F61C20C8F20000059901F07DFC40F2B5
:102FB000145000F0E1FC4EF22C60C8F200000499BD
:102FC00001F09AFB4EF22C00C8F20700079901F0BD
:102FD00093FB46F61C40C8F20000059901F064FC22
:102FE00040F2165000F0C8FC4FF22860C8F2000012
:102FF000049901F081FB4FF22800C8F207000799FD
:1030000001F07AFB46F61C60C8F20000059901F059
:103010004BFC40F2062000F0AFFC4FF4027000F0D1
:10302000ABFC40F20A2000F0A7FC4FF23830C8F2A7
:103030000700059901F060FB43F23820C8F2000058
:10304000059901F031FC0E2000F096FC1220029050
:1030500000F092FC40F2067000F08EFC102000F0B0
:103060008BFC142000F088FC4FF4E16000F084FC3D
:103070004EF22020C8F20700079901F03DFB46F60A
:103080002000C8F20000039901F00EFC4FF4A36089
:1030900000F072FC1C2000F06FFC0C2000F06CFCB7
:1030A0004FF48C7000F068FC40F2023000F064FCD9
:1030B00040F2063000F060FC40F21A5000F05CFC78
:1030C00040F20E6000F058FC4EF22400C8F20700F7
:1030D000059901F011FB42F22460C8F20000059945
:1030E00001F0E2FB40F20A3000F046FC4EF63840B8
:1030F000C8F20000079901F0FFFA4FF21870C8F209
:103100000000049901F0F8FA4EF63870C8F2000099
:10311000052101F0C9FB40F20E5000F02DFC4FF6E6
:103120003010C8F20000079901F0E6FA4FF2306063
:10313000C8F200000721019101F0DEFA47F23040A9
:10314000C8F20000049901F0AFFB40F2025000F019
:1031500013FC4EF63040C8F20000079901F0CCFA9B
:103160004EF63010C8F20000019901F0C5FA46F29F
:103170003070C8F20000049901F096FB4FF44070E3
:1031800000F0FAFB4EF62810C8F20000079901F093
:10319000B3FA4FF62810C8F20000079901F0ACFA14
:1031A00047F22030C8F20000049901F07DFB42F2A2
:1031B0000C00C8F20000059901F076FB48F260109F
:1031C000C4F20D00016821F01F0101604CF26000A3
:1031D000C4F20F00016821F0700101600168079AD4
:1031E00062F303010160016821F46001016001687C
:1031F000029B63F314410160016821F48071016056
:10320000016821F080010160016821F08071016096
:1032100040F29400C2F2000044F20061C2F2C331F5
:1032200001600AB080BD000080B586B04EF6145033
:10323000CEF2000000688003002817D5FFE7BFF337
:103240004F8FBFF36F8F4EF61450CEF2000001681F
:1032500021F4003101604EF65070CEF200000021E2
:103260000160BFF34F8FBFF36F8FFFE74EF614502F
:10327000CEF200000068C00300283DD5FFE74EF6FF
:103280008450CEF2000000210160BFF34F8F4EF654
:103290001450CEF20000016821F480310160BFF3C8
:1032A0004F8F4EF68050CEF20000006805900598D2
:1032B000C0F34E300490FFE70598C0F3C9000390B7
:1032C000FFE704980399890760F34D114EF6747077
:1032D000CEF2000001600398411E03910028F0D156
:1032E000FFE70498411E04910028E5D1FFE7BFF3F2
:1032F0004F8FBFF36F8FFFE7FFF77EFC4EF69C50BA
:10330000CEF200001021CCF2000101604EF6A05177
:10331000CEF200013922C0F210320A601122C8F246
:10332000000202603B22C0F210320A601223C7F290
:10333000000303602B23C0F203630B6013230360BD
:103340000A60142202601F22C0F203320A601522B2
:10335000C2F2000202602522C0F203320A60162384
:10336000C2F2200303600A601722C2F22802026040
:103370000922C0F203320A601822C8F20002026079
:103380003122C0F203320A601922C8F2E012026050
:103390002920C0F2083008600420FFF741FC4EF6F7
:1033A0001450CEF200000068C003002801D5FFE7EA
:1033B0003CE04EF68450CEF2000000210160BFF3E5
:1033C0004F8F4EF68050CEF20000006802900298B7
:1033D000C0F34E300190FFE70298C0F3C90000909F
:1033E000FFE701980099890760F34D114EF6607070
:1033F000CEF2000001600098411E00910028F0D13B
:10340000FFE70198411E01910028E5D1FFE7BFF3D6
:103410004F8F4EF61450CEF20000016841F4803117
:103420000160BFF34F8FBFF36F8FFFE74EF614506D
:10343000CEF2000000688003002801D5FFE71AE003
:10344000BFF34F8FBFF36F8F4EF65070CEF2000078
:1034500000210160BFF34F8FBFF36F8F4EF6145002
:10346000CEF20000016841F400310160BFF34F8FDC
:10347000BFF36F8FFFE706B080BD000000000000C3
:1034800080B584B042F22460C8F2000000F044FC31
:1034900000281BD1FFE70D20C0F2100000F058FDFE
:1034A0004AF6AB21CAF6AA21A0FB010189084EF217
:1034B0002402C8F2070202901046019100F068FB56
:1034C00001300199B1FBF0F003900FE000F038FCFF
:1034D0004EF22401C8F207010090084600F058FBA4
:1034E00001300099B1FBF0F00390FFE7039804B0BE
:1034F00080BD00000000000080B582B0FFF7C0FF73
:103500000190019B4FF4E13101200090009A02F0FC
:1035100013FC02B080BD0000FFE7FEE700000000E2
:1035200080B582B049F69410C2F2010040680028CC
:1035300001D0FFE70BE049F6BF50C8F2010049F6A1
:103540001061C8F2010140F649520CF06DFA49F6DB
:103550009410C2F20100416840F21420C2F200004F
:1035600000680022C4F21D0201901046019A9047A3
:1035700002B080BD0000000080B582B049F6941012
:10358000C2F201008068002801D0FFE70BE049F695
:10359000DA50C8F2010049F61061C8F2010140F6A4
:1035A00057520CF041FA49F69410C2F201008168BA
:1035B00040F21420C2F20000006844F20002C4F29B
:1035C0001D0201901046019A904702B080BD000094
:1035D00080B582B049F69410C2F20100C06800289C
:1035E00001D0FFE70BE049F6F550C8F2010049F6BB
:1035F0001061C8F2010140F665520CF015FA49F667
:103600009410C2F20100C16840F21420C2F200001E
:10361000006848F20002C4F21D0201901046019AAF
:10362000904702B080BD000084B00A460346ADF862
:103630000E008DF80D10BDF90E00000A0290BDF8C5
:103640000E0000F01F0001900298072801D8FFE744
:103650000BE049F63420C8F2010049F65F21C8F2B8
:10366000010140F22D420CF0DFF902984CF26801A2
:10367000C4F20F0101EB80000090009800680199EE
:1036800003228A4090439DF80D2002FA01F108437D
:103690000099086004B0704784B00A460346ADF84C
:1036A0000E008DF80D10BDF90E00000A0290BDF855
:1036B0000E0000F01F0001900298072801D8FFE7D4
:1036C0000BE049F63420C8F2010049F65F21C8F248
:1036D000010140F22D420CF0A7F902984CF268016A
:1036E000C4F20F0101EB800000900098006801997E
:1036F00003228A4090439DF80D2002FA01F108430D
:103700000099086004B0704784B00A460346ADF8DB
:103710000E008DF80D10BDF90E00000A0290BDF8E4
:103720000E0000F01F0001900298072801D8FFE763
:103730000BE049F63420C8F2010049F65F21C8F2D7
:10374000010140F22D420CF06FF902984CF2680131
:10375000C4F20F0101EB800000900098006801990D
:1037600003228A4090439DF80D2002FA01F108439C
:103770000099086004B0704784B00A460346ADF86B
:103780000E008DF80D10BDF90E00000A0290BDF874
:103790000E0000F01F0001900298072801D8FFE7F3
:1037A0000BE049F63420C8F2010049F65F21C8F267
:1037B000010140F22D420CF037F902984CF26801F9
:1037C000C4F20F0101EB800000900098006801999D
:1037D00003228A4090439DF80D2002FA01F108432C
:1037E0000099086004B0704784B00A460346ADF8FB
:1037F0000E008DF80D10BDF90E00000A0290BDF804
:103800000E0000F01F0001900298072801D8FFE782
:103810000BE049F63420C8F2010049F65F21C8F2F6
:10382000010140F22D420CF0FFF802984CF26801C1
:10383000C4F20F0101EB800000900098006801992C
:1038400003228A4090439DF80D2002FA01F10843BB
:103850000099086004B0704784B00A460346ADF88A
:103860000E008DF80D10BDF90E00000A0290BDF893
:103870000E0000F01F0001900298072801D8FFE712
:103880000BE049F63420C8F2010049F65F21C8F286
:10389000010140F22D420CF0C7F802984CF2680189
:1038A000C4F20F0101EB80000090009800680199BC
:1038B00003228A4090439DF80D2002FA01F108434B
:1038C0000099086004B0704784B00A460346ADF81A
:1038D0000E008DF80D10BDF90E00000A0290BDF823
:1038E0000E0000F01F0001900298072801D8FFE7A2
:1038F0000BE049F63420C8F2010049F65F21C8F216
:10390000010140F22D420CF08FF802984CF2680150
:10391000C4F20F0101EB800000900098006801994B
:1039200003228A4090439DF80D2002FA01F10843DA
:103930000099086004B0704748F27000C4F20D00AE
:103940004FF480510160704748F2E000C4F20D006E
:103950004FF480510160704748F22000C4F20D001E
:10396000002101607047000048F2A000C4F20D0081
:103970004FF480510160704780B582B00146ADF8C8
:103980000600BDF90600002200911146FFF74CFE2B
:1039900002B080BD0000000080B582B00146ADF8E5
:1039A0000600BDF90600002200911146FFF7E4FE73
:1039B00002B080BD0000000080B582B00146ADF8C5
:1039C0000600BDF90600002200911146FFF744FFF2
:1039D00002B080BD0000000080B582B00146ADF8A5
:1039E0000600BDF90600032200911146FFF754FEC0
:1039F00002B080BD0000000080B582B00146ADF885
:103A00000600BDF90600032200911146FFF77CFE77
:103A100002B080BD0000000080B582B00146ADF864
:103A20000600BDF90600032200911146FFF7A4FE2F
:103A300002B080BD0000000080B582B00146ADF844
:103A40000600BDF90600032200911146FFF7CCFEE7
:103A500002B080BD0000000080B582B00146ADF824
:103A60000600BDF90600032200911146FFF7F4FE9F
:103A700002B080BD0000000080B582B00146ADF804
:103A80000600BDF90600032200911146FFF71CFF56
:103A900002B080BD0000000083B002468DF80B002C
:103AA00001914CF28000C4F20F00016841F0030163
:103AB000016040F24010C4F22E00016841F00201A2
:103AC000016000200090FFE7009841F67F21C0F2DE
:103AD0000601884206D8FFE700BFFFE700980130E3
:103AE0000090F1E748F22010C4F20D00016841F2A5
:103AF0000172114321F400610160012003B070479D
:103B000080B584B002468DF80F0002910020ADF818
:103B1000040048F21000C4F20D0000688004002880
:103B200009D5FFE748F21000C4F20D00016841F02A
:103B30004001016003E001A800F08AFDFFE749F2BF
:103B40003000C4F20D00016821F0004101600168FD
:103B500021F08041016049F20001C4F20D01002210
:103B60000A60016841F4C6110160012004B080BD03
:103B700080B500F041F94CF21401C4F20F0109685C
:103B800001F4E051012202EB9121B0FBF1F080BD84
:103B900081B00090009840F6C071C0F2400161F31E
:103BA0001F2000680099C1F34C32C1F304218A4000
:103BB0001040C84001B0704780B584B001468DF810
:103BC0000F009DF80F0002461728019200F28C802A
:103BD0000199DFE801F00C0C1014181C2024293086
:103BE000353A3F444B52575C61666D747B82FFF7F8
:103BF000BFFF02907BE000F0CBFB029077E000F08B
:103C00007BF8029073E000F0D3F802906FE000F0D0
:103C1000B3F802906BE000F0B7FB029067E00D2074
:103C200000F096F9029062E00D20C0F2100000F062
:103C30008FF902905BE0002000F032FC029056E029
:103C4000012000F02DFC029051E0022000F028FC41
:103C500002904CE0032000F023FC029047E00D208E
:103C6000C0F2200000F074F9029040E00D20C0F294
:103C7000300000F06DF9029039E0002000F0BCFB4C
:103C8000029034E0012000F0B7FB02902FE0022008
:103C900000F0B2FB02902AE0032000F0ADFB02909E
:103CA00025E00D20C0F2E00000F052F902901EE085
:103CB0001420C0F2E00000F04BF9029017E015204C
:103CC000C0F2E00000F044F9029010E00D20C0F2D4
:103CD000700000F03DF9029009E00D20C0F2A00054
:103CE00000F036F9029002E000200290FFE702980F
:103CF00004B080BD0000000080B5FFF739FF4CF232
:103D00001401C4F20F01096801F44071012202EBB1
:103D10001121B0FBF1F080BD81B00090009840F619
:103D2000C071C0F2400161F31F2000680099C1F327
:103D30004C32C1F304218A401040C84001B07047A2
:103D400081B048F27020C4F20D000068C00600285F
:103D500006D5FFE743F20060C0F26E10009006E067
:103D600048F67050C2F2010000680090FFE700982A
:103D700001B070470000000081B048F27020C4F22A
:103D80000D000068C006002806D5FFE743F200607A
:103D9000C0F26E10009006E048F67050C2F20100CA
:103DA00000680090FFE7009801B070470000000035
:103DB00080B582B04CF21C00C4F20F0000684006CF
:103DC000002804D5FFE7FFF7D7FF019003E0FFF7D6
:103DD00093FF0190FFE74CF21C00C4F20F00006853
:103DE00000F03F0001300199B1FBF0F00190019823
:103DF00002B080BD0000000080B584B04CF2140019
:103E0000C4F20F0000688001002840D5FFE74CF2A3
:103E10001800C4F20F00006800F44050014600286A
:103E200002910FD0FFE70298B0F5805F11D0FFE755
:103E30000298B0F5005F10D0FFE70298B0F5405F40
:103E400012D012E00D20C0F2100000F081F80390B3
:103E50000EE0FFF791FF03900AE00D20C0F2300062
:103E600000F076F8039003E0FFE700200390FFE7FF
:103E70004CF21400C4F20F00006800F06050012101
:103E800001EBD0600399B1FBF0F003903EE04CF2FF
:103E90001800C4F20F00006800F44020014600281A
:103EA00001910FD0FFE70198B0F5802F11D0FFE707
:103EB0000198B0F5002F11D0FFE70198B0F5402F21
:103EC00011D01FE00D20C0F2300000F041F8039047
:103ED0001BE0022000F090FA039016E0002000F0B2
:103EE0008BFA039011E00D2000F032F84CF2100133
:103EF000C4F20F01096801F007010131B0FBF1F0D4
:103F0000039002E000200390FFE7FFE7039804B06E
:103F100080BD00000000000080B584B003900291D5
:103F20000398BDF80A106FF31F31405880B200218A
:103F3000B1EB903F04D1FFE7FFF71EFF019002E0D5
:103F400000200190FFE7019804B080BD0000000050
:103F500080B590B00E9049F6B400C8F20100016837
:103F600042688368C06809900893079206910E9989
:103F700048F20000C4F20D0000F0AAFB002803D1B3
:103F8000FFE700200F90FAE10E9948F20000C4F21A
:103F90000D000590FFF7C0FF0D900E99059800F0F9
:103FA00087FB002803D0FFE70D980F90E7E10E98FC
:103FB0000D2804903DD0FFE70D20C0F210000499B9
:103FC00081427ED0FFE70D20C0F22000049981429B
:103FD00000F0C081FFE70D20C0F23000049981425B
:103FE00033D0FFE70D20C0F270000499814277D0F2
:103FF000FFE70D20C0F2A0000499814200F0FF808D
:10400000FFE70D20C0F2E0000499814200F08081BA
:10401000FFE71420C0F2E0000499814200F086819D
:10402000FFE71520C0F2E0000499814200F08C8186
:104030009FE10D9848F20001C4F20D01096801F0FA
:104040007F01484340080D9096E19DED0D0AB8EEC2
:10405000401B48F25000C4F20D0090ED000AB8EE8B
:10406000402B21EE021B8DED0A1B48F26000C4F2CA
:104070000D0090ED000AB8EE401B9DED0A2B82EE7C
:10408000011B8DED0A1B48F23000C4F20D000068E0
:10409000C007002805D0FFE70D98162148430D9072
:1040A00005E00D9800EB800080000D90FFE79DED8E
:1040B0000A0BBCEEC01B11EE100A0D9908440D90BE
:1040C0005AE10D9848F21001C4F20D010968890700
:1040D0001422002948BF162202FB00F00D904BE18C
:1040E00048F27000C4F20D00016801F07F010C91EC
:1040F0009DED0D0AB8EE401B48F28001C4F20D019F
:1041000091ED000AB8EE402B21EE021B8DED0A1B4B
:1041100048F29001C4F20D0191ED000AB8EE401B87
:104120009DED0A2B82EE011B8DED0A1B0D990C9A59
:104130009DED0A1BBCEEC10B10EE103A01FB0231E3
:104140000D91006800F4C0100146002803910AD0C8
:10415000FFE70398B0F5002F09D0FFE70398B0F50B
:10416000801F08D008E00D9880080D9010E00D9891
:1041700040080D900CE00BE049F6A240C8F20100A7
:1041800049F66241C8F2010140F2C5320BF04CFC25
:1041900048F27010C4F20D00006848F20001C0F24D
:1041A000800108400146002802911AD0FFE70298DA
:1041B000B0F5004F11D0FFE70298B0F5000F10D016
:1041C000FFE748F20000C0F280000299814209D165
:1041D000FFE70D9880080D9010E00D9840080D90B5
:1041E0000CE00BE049F6A240C8F2010049F662413A
:1041F000C8F2010140F2D9320BF016FCBCE048F2E3
:10420000A000C4F20D00016801F07F010C919DED4A
:104210000D0AB8EE401B48F2B001C4F20D0191ED59
:10422000000AB8EE402B21EE021B8DED0A1B48F26E
:10423000C001C4F20D0191ED000AB8EE401B9DEDE6
:104240000A2B82EE011B8DED0A1B0D990C9A9DED38
:104250000A1BBCEEC10B10EE103A01FB02310D91AE
:10426000006800F4C0100146002801910AD0FFE761
:104270000198B0F5002F09D0FFE70198B0F5801F35
:1042800008D008E00D9880080D9010E00D984008C7
:104290000D900CE00BE049F6A240C8F2010049F68F
:1042A0006241C8F2010140F206420BF0BDFB48F248
:1042B0007010C4F20D00006800F040400146B0F1FB
:1042C000004F009116D0FFE70098B0F1404F09D0A1
:1042D000FFE7009800280DD0FFE70098B0F1804F6D
:1042E00004D008E00D9880080D9010E00D9840086B
:1042F0000D900CE00BE049F6A240C8F2010049F62F
:104300006241C8F2010140F21A420BF08DFB33E02A
:1043100048F2E000C4F20D00006800F003000C90C9
:104320000C9806A951F820000D9025E048F2E00015
:10433000C4F20D000068C0F381000C900C9806A92F
:1043400051F820000D9017E047F64000C0F27D10B4
:104350000D9011E00D9848F22001C4F20D0109689A
:1043600089071422002948BF162202FB00F00D9095
:1043700002E000200D90FFE70D980F90FFE70F98E7
:1043800010B080BD000000004FF4004070470000F6
:1043900080B582B04CF21400C4F20F0000684006F1
:1043A000002814D5FFE74CF21400C4F20F00006897
:1043B0000006002805D5FFE7012000F071F8019004
:1043C00004E0022000F018F80190FFE703E0FFF797
:1043D00013FD0190FFE74CF21400C4F20F000068D7
:1043E00000F4E020012101EB10400199B1FBF0F055
:1043F0000190019802B080BD80B584B001468DF86F
:104400000F000D20C0F230000191FFF7A1FD0290D6
:104410009DF80F0001460328009134D80099DFE889
:1044200001F0020E1A2648F20010C4F20D000068D6
:1044300000F03F000299B1FBF0F0029026E048F254
:104440000010C4F20D000068C0F305200299B1FB12
:10445000F0F002901AE048F20010C4F20D0000687B
:10446000C0F305400299B1FBF0F002900EE048F273
:104470000010C4F20D000068C0F305600299B1FBA2
:10448000F0F0029002E000200290FFE7029800EBBB
:10449000C00040000290029804B080BD00000000FF
:1044A00080B584B001468DF80F000D20C0F21000D9
:1044B0000191FFF74DFD02909DF80F000146032882
:1044C000009134D80099DFE801F0020E1A2648F274
:1044D000F000C4F20D00006800F03F000299B1FB4B
:1044E000F0F0029026E048F2F000C4F20D000068FF
:1044F000C0F305200299B1FBF0F002901AE048F2F7
:10450000F000C4F20D000068C0F305400299B1FB51
:10451000F0F002900EE048F2F000C4F20D000068E6
:10452000C0F305600299B1FBF0F0029002E00020B8
:104530000290FFE7029800EBC00040000290029852
:1045400004B080BD0000000081B0009048F200007F
:10455000C4F20D00016821F4E031009A127992034F
:1045600092B2114401F580310160016843F27F028B
:104570009143009A126802F07F02114401F5005144
:104580000160FFE748F20000C4F20D000068C00FB0
:10459000002801D1FFE7F5E748F20000C4F20D0062
:1045A000016821F48031016001B070470000000013
:1045B00082B001468DF807009DF80700C00700286B
:1045C00001D1FFE70AE049F69340C8F2010049F63D
:1045D0006241C8F20101A2220BF026FA48F25810FB
:1045E000C4F20D004FF080410160FFE748F27020F7
:1045F000C4F20D000068C003002801D4FFE7F5E70E
:1046000048F25410C4F20D004FF480310160FFE70E
:1046100048F25010C4F20D0000680004002801D4D4
:10462000FFE7F5E748F25810C4F20D004FF480316F
:10463000016002B07047000048F27020C4F20D0023
:10464000016841F0010101607047000000000000B6
:1046500081B0009048F21000C4F20D00016821F40E
:10466000E031009A5278920392B2114401F5803100
:1046700001600168009A1278C2F31E0262F34101E0
:1046800041F441510160FFE748F21000C4F20D000F
:104690000068C00F002801D1FFE7F5E748F21000DD
:1046A000C4F20D00016821F48031016001B070474F
:1046B00082B0019000910198BDF802106FF31F3194
:1046C0004058C0F3004002B07047000000000000F6
:1046D00082B0019000910198BDF802106FF31F3174
:1046E0004058009901F01F01C84000F0010002B0DD
:1046F000704700000000000080B584B00390029174
:104700000398800E0190039840F6C071C0F24001FA
:1047100061F31F200068039AC2F34C33C2F3042CE8
:1047200003FA0CF39843DDF808E00EFA0CFC03EAF8
:104730000C03184361F31F2210600198202801D850
:10474000FFE70BE049F64120C8F2010049F65F217E
:10475000C8F2010140F20B420BF066F901982028E3
:104760000ED0FFE7FFE74CF24800C4F20F000068EC
:104770000199C840C007002801D0FFE7F3E7FFE731
:1047800004B080BD0000000080B584B003900291A9
:104790000398800E0190039840F6C071C0F240016A
:1047A00061F31F200068039AC2F34C33C2F3042C58
:1047B00003FA0CF39843DDF808E00EFA0CFC03EA68
:1047C0000C03184361F31F2210600198202801D8C0
:1047D000FFE70BE049F64120C8F2010049F65F21EE
:1047E000C8F2010140F20B420BF01EF9019820289B
:1047F0000ED0FFE7FFE74CF24800C4F20F0000685C
:104800000199C840C007002801D0FFE7F3E7FFE7A0
:1048100004B080BD0000000080B584B00390029118
:104820000398800E0190039840F6C071C0F24001D9
:1048300061F31F200068039AC2F34C33C2F3042CC7
:1048400003FA0CF39843DDF808E00EFA0CFC03EAD7
:104850000C03184361F31F2210600198202801D82F
:10486000FFE70BE049F64120C8F2010049F65F215D
:10487000C8F2010140F20B420BF0D6F80198202853
:104880000ED0FFE7FFE74CF24800C4F20F000068CB
:104890000199C840C007002801D0FFE7F3E7FFE710
:1048A00004B080BD0000000080B584B00390029188
:1048B0000398800E0190039840F6C071C0F2400149
:1048C00061F31F200068039AC2F34C33C2F3042C37
:1048D00003FA0CF39843DDF808E00EFA0CFC03EA47
:1048E0000C03184361F31F2210600198202801D89F
:1048F000FFE70BE049F64120C8F2010049F65F21CD
:10490000C8F2010140F2E6320BF08EF8019820283F
:104910000ED0FFE7FFE74CF24800C4F20F0000683A
:104920000199C840C007002801D0FFE7F3E7FFE77F
:1049300004B080BD0000000080B584B003900291F7
:104940000398800E0190039840F6C071C0F24001B8
:1049500061F31F200068039AC2F34C33C2F3042CA6
:1049600003FA0CF39843DDF808E00EFA0CFC03EAB6
:104970000C03184361F31F2210600198202801D80E
:10498000FFE70BE049F64120C8F2010049F65F213C
:10499000C8F2010140F2E6320BF046F801982028F7
:1049A0000ED0FFE7FFE74CF24800C4F20F000068AA
:1049B0000199C840C007002801D0FFE7F3E7FFE7EF
:1049C00004B080BD0000000080B584B00390029167
:1049D0000398800E0190039840F6C071C0F2400128
:1049E00061F31F200068039AC2F34C33C2F3042C16
:1049F00003FA0CF39843DDF808E00EFA0CFC03EA26
:104A00000C03184361F31F2210600198202801D87D
:104A1000FFE70BE049F64120C8F2010049F65F21AB
:104A2000C8F2010140F2E6320AF0FEFF01982028A8
:104A30000ED0FFE7FFE74CF24800C4F20F00006819
:104A40000199C840C007002801D0FFE7F3E7FFE75E
:104A500004B080BD0000000083B0134602900191B5
:104A60008DF803209DF80300C00700280AD0FFE757
:104A70000298BDF806106FF31F3108444FF48031DF
:104A8000416009E00298BDF806106FF31F31084439
:104A90004FF480318160FFE703B0704700000000F1
:104AA00081B00090009848F64051C2F201010860C0
:104AB00001B070470000000081B00090009848F6F7
:104AC0007051C2F20101086001B07047000000009F
:104AD00081B001468DF803009DF80300002807D13E
:104AE000FFE748F27420C4F20D001021016006E0D7
:104AF00048F27820C4F20D0010210160FFE701B0F8
:104B0000704700000000000084B00A4603908DF852
:104B10000B1000200090039800680190019820F489
:104B20008070039908609DF80B00C007002805D02D
:104B3000FFE7009840F020000090FFE79DF80B0091
:104B40008007002805D5FFE7009840F0400000905E
:104B5000FFE7019820F480700099084303990860EA
:104B6000FFE7039800680099084201D0FFE7F8E7E3
:104B700001980399086004B070470000000000002D
:104B800080B582B049F26470C2F20100006849F257
:104B90006071C2F2010109684CF20002C4F22B02FA
:104BA00001901046019A904702B080BD00000000BD
:104BB00083B013468C4602908DF807108DF80620BE
:104BC000002000909DF80700C007002805D0FFE7EF
:104BD000009840F480500090FFE79DF807008007A0
:104BE000002805D5FFE7009840F400600090FFE73B
:104BF0009DF80600C007002806D0FFE7009802993C
:104C00008A681043886006E0009802998A6822EA60
:104C100000008860FFE703B070470000000000005C
:104C200082B001900091BDF8020001990A6842EA41
:104C3000004008609DF8000001998A681043886070
:104C40009DF80100000201998A6C42EA9010886484
:104C500002B070470000000080B584B00390039854
:104C6000002801D0FFE70BE049F63270C8F20100DE
:104C700049F6CA41C8F2010140F279120AF0D4FEA5
:104C800003980021102202910192FDF7ACFE0399D6
:104C90004FF4A0720A800399F0224A80039940F6EB
:104CA00002024A60039902220A7203994FF42072A9
:104CB0004A810399019A8A810399029B8B73039914
:104CC0004FF0010C81F80FC004B080BD000000005F
:104CD00082B0019000200090FFE70098002811D1D9
:104CE000FFE7009849F66411C8F2010151F820006D
:104CF0000199884201D1FFE704E0FFE70098013005
:104D00000090EAE70098002801D1FFE70AE049F6A1
:104D1000A840C8F2010049F6CA41C8F20101862242
:104D20000AF082FE009802B0704700000000000008
:104D300080B5FFF725FFBFF34F8F80BD0000000057
:104D400080B586B0049003910398002801D0FFE756
:104D50000AE049F63270C8F2010049F6CA41C8F2C9
:104D60000101CC220AF060FE03980188007A4843D2
:104D7000019001980399498908434007002803D00E
:104D8000FFE7042005908AE00498FFF7A1FF009058
:104D9000009849F66811C8F2010131F91000FEF7D8
:104DA0001BFE049800F0ACF8039881894068084322
:104DB00040F4807002900398C07BC007002805D0A3
:104DC000FFE7029840F080400290FFE702980499C4
:104DD00008600398007A04280DD1FFE704988168E1
:104DE00041F00401816003980188408840EA014055
:104DF0000499486307E001980399498841EA004013
:104E000004994863FFE7039840890199401AC00854
:104E1000049908630498816841F0010181609DF85C
:104E20000400400600280FD1FFE704984FF04041EE
:104E300041604CF20800C4F22B000068022161F3CB
:104E400006100499886023E09DF80400800600287D
:104E50000FD1FFE704984FF0004141604CF2080089
:104E6000C4F22B000068012161F3061004998860E8
:104E70000DE004984FF0804141604CF20800C4F20C
:104E80002B00006820F0700004998860FFE7FFE7BE
:104E90000498012100F008F800200590FFE705982C
:104EA00006B080BD0000000083B00A4602908DF875
:104EB0000710002000909DF80700C007002805D0CB
:104EC000FFE7009840F480400090FFE79DF807005E
:104ED0008007002805D5FFE7009840F400500090B7
:104EE000FFE7009802998A6810438860FFE70298FC
:104EF00080680099084201D0FFE7F8E703B07047E7
:104F000080B584B00390039800F05EF80398002108
:104F100081600398816841F400418160FFE7039854
:104F200080680004002801D5FFE7F8E70398032113
:104F30000191FFF7E9FD03980199FFF7B5FF039889
:104F400080690290029803998861039840F60001F5
:104F5000C4F2000101600398002141600398816060
:104F600003984FF4504282640398016303984163AD
:104F700004B080BD0000000083B00B4602908DF8A5
:104F8000071000929DF80700002804D0FFE7009862
:104F90000299C86203E0009802998862FFE703B0B3
:104FA000704700000000000080B582B001900198B9
:104FB00001210091009AFFF7FBFD0198816C41F0FF
:104FC0000041816402B080BD80B582B0019001983B
:104FD000816C21F000418164019801210022FFF7DA
:104FE000E7FD02B080BD000080B588B00790069153
:104FF000059204930698002801D0FFE70BE04AF2DF
:10500000A200C8F2010049F6CA41C8F201014FF4FA
:105010000C720AF009FD069800211C220291FDF78E
:10502000E2FC0599069A51610499069A91610799E3
:1050300001900846FFF74CFE03900698039949F249
:105040006072C2F2010242F8210049F26470C2F2B9
:10505000010042F61141C8F200010160039849F6CF
:105060006A11C8F2010131F9100001F021FA029928
:105070000090084608B080BD80B582B001900091D4
:105080000098807B0099497B00F032F802B080BD27
:1050900080B586B00490039102920398007B039937
:1050A000C97B884204D1FFE740F65530059019E0EE
:1050B000049800680190019820F4C01004990860D9
:1050C0000398017B50F82100029908600398007B47
:1050D00000F0AAF803990873019804990860002069
:1050E0000590FFE7059806B080BD000000000000B5
:1050F00083B00190009100980199884205D3FFE7A1
:1051000000980199401A029005E001980099401A10
:1051100003300290FFE7029803B0704700000000E0
:1051200080B586B005900491059880690290029838
:1051300005998861029800F4C010B0F5C01F31D104
:10514000FFE70598FFF740FF0498007C012821DB6A
:10515000FFE70498C07B03900498039950F821005E
:10516000059988620498007C02280ED1FFE7039815
:1051700000F05AF803900498039950F8210005991B
:10518000C86204980021417403E00498012141742D
:10519000FFE7FFE705980121FFF786FE0598FFF777
:1051A00003FF3FE09DF80A0010F0180F38D0FFE72A
:1051B0000498C07B00F038F80499C8730498017C07
:1051C000013901740498406900280FD0FFE7049862
:1051D00005994269836940F6573C01900846019958
:1051E00000926246DDF800C0E047FFE70498007CCB
:1051F000002807D1FFE70598FFF7E6FE0498002195
:10520000C1740CE005980499FFF736FF002805D01B
:10521000FFE70598049900F017F8FFE7FFE700E0C3
:10522000FFE7FFE706B080BD82B001900198013032
:1052300000900098032803D3FFE700200090FFE7C9
:10524000009802B07047000080B582B001900091D4
:1052500001980099497C009A937B52F82320FFF72C
:105260008BFE0098807BFFF7DFFF00998873009822
:10527000017C013101740098417C81F0010141748D
:1052800002B080BD0000000080B586B0049003919C
:105290000398002801D0FFE70BE04AF2A200C8F211
:1052A000010049F6CA41C8F2010140F257220AF052
:1052B000BBFB03990498FFF7DFFE029002980128D8
:1052C00004D8FFE740F6543005902BE00398002106
:1052D0004174039801740498806C40F0300020F40D
:1052E0004020049A90640498039A01911146FFF7B4
:1052F000ABFF04980399FFF7A7FF049801210091E1
:10530000FFF7D2FD0398009981740398C174049843
:105310004FF4C011FFF784FC0498FFF745FE019895
:105320000590FFE7059806B080BD00000000000072
:1053300080B586B00490039102920398007B039994
:10534000497BFFF7D5FE022804D1FFE740F656302F
:10535000059044E0049800680190019820F4C01082
:1053600004990860029803994A7B41F82200039847
:10537000407BFFF759FF039948730198049908602F
:105380000398807CC007002826D0FFE70398C07CE4
:10539000C00700281FD1FFE704980399FFF76CFEB0
:1053A000022818D3FFE703980121C1740398002253
:1053B00042740498039A00911146FFF745FF049840
:1053C0000399FFF741FF04980099FFF76DFD0498DA
:1053D000FFF7EAFDFFE7FFE700200590FFE70598EC
:1053E00006B080BD0000000080B59EB01C901B91EF
:1053F0001A921993002007901C99069106994A1C4D
:10540000069208701B9890ED000B8DED0C0B9DED36
:105410000C0BB5EE400BF1EE10FA09D1FFE7069840
:105420003021017007980130079007981D9017E10F
:105430009DED0C0B08A815F0F1FE8DED0A0B002078
:105440001590FFE71598199988420FD2FFE79DED57
:105450001A0AB8EEC01B9DED0A2B22EE011B8DED42
:105460000A1BFFE7159801301590EBE79DED0C0B3B
:10547000B5EE400BF1EE10FA28DBFFE79DED0A0BCD
:10548000B6EE001B30EE010B8DED120B9DED120BF5
:105490009DED192AB8EE421BB2EE043B8DED040BD4
:1054A000B0EE430B15F01CFF9DED041BB4EE401B4A
:1054B000F1EE10FA09DBFFE79DED080BB7EE001BDC
:1054C00030EE010B8DED080BFFE729E09DED0A0B97
:1054D000BEEE001B30EE010B8DED120B9DED120B9D
:1054E0009DED192AB8EE421BB2EE043B8DED020B86
:1054F000B0EE430B15F0F4FEB1EE400B9DED021B38
:10550000B4EE401BF1EE10FA09DCFFE79DED080B4D
:10551000BFEE001B30EE010B8DED080BFFE7FFE740
:1055200000201590FFE71598199988424ED2FFE7A1
:105530009DED120B9DED1A1AB8EEC12B80EE020BF9
:105540008DED0E0B9DED120B9DED0E2B51EC120B04
:105550008DED000BFDF76BFA1A9AD317A0FB02CE64
:1055600000FB03E001FB02016046FDF74CFA41EC51
:10557000100B9DED002B32EE400B8DED100B9DEDD1
:10558000100BBDEEC01B8DED161A1698B0F1FF3F43
:1055900007DCFFE7169814901498C043313016903A
:1055A00003E0169830301690FFE79DED0E0B8DED61
:1055B000120B169806994A1C06920870079801303B
:1055C0000790FFE7159801301590ACE70698411C4D
:1055D00006912E2101700798013007909DED080B70
:1055E000BDEEC01B8DED181A1898002809D1FFE7F1
:1055F0000698411C069130210170079801300790F0
:105600002BE0FFE71898002826D0FFE718981A9992
:1056100090FBF1F01790189817991A9A01FB120055
:1056200016901698B0F1FF3F07DCFFE7169814902C
:105630001498C0433130169003E01698303016901D
:10564000FFE717981890169806994A1C069208705A
:10565000079801300790D5E7FFE707981D90FFE70F
:105660001D981EB080BD0000B0B594B0DDF860C0DC
:105670001290119110920F938DF83BC00020019071
:105680001299009100994A1C009208701098002805
:1056900060D0FFE71198016840680D900C910C985C
:1056A0000D990843002809D1FFE7009830210170C7
:1056B00001980130019001981390B7E0FFE70C9832
:1056C0000D990843002844D0FFE70C980D990F9AD4
:1056D000D317FDF74EF90B910A900C980D990A9A81
:1056E0000B9BDDF83CC04FEAEC7EA2FB0C4502FBB5
:1056F0000E5203FB0C22001B61EB02010890099182
:105700000998B0F1FF3F0EDCFFE708980999039173
:10571000029002980399C943C043313041F100011E
:105720000890099107E008980999303041F100018B
:1057300008900991FFE70A980B990D910C909DF83C
:10574000200000994A1C00920870019801300190D5
:10575000B5E768E0119801684068079006910698DF
:1057600007990843002809D1FFE70098302101700C
:105770000198013001900198139057E0FFE70698D7
:105780000799084300284DD0FFE7069807990F9A1C
:10579000D317FDF7BDF80591049006980799049A70
:1057A000059BDDF83CC04FEAEC7EA2FB0C4502FBFA
:1057B0000E5203FB0C22001B61EB020102900391CD
:1057C00002980399D0F109004FF0000272EB010139
:1057D00008D3FFE702980399303041F100010290AD
:1057E000039111E0029803999DF83B20D2076123B1
:1057F000002A18BF4123C01841F100010A3861F1A5
:10580000000102900391FFE7049805990791069023
:105810009DF8080000994A1C009208700198013018
:105820000190ACE7FFE701981390FFE7139814B0DD
:10583000B0BD00000000000080B548F20000C4F2D6
:105840000E00002100F034FC4007002808D5FFE7D7
:1058500049F20040C2F20100006800F065FCFFE779
:1058600048F20000C4F20E00102100F021FC4007B5
:10587000002808D5FFE749F20040C2F20100006CA1
:1058800000F052FCFFE780BD80B548F20000C4F292
:105890000E000A2100F00CFC4007002808D5FFE7A5
:1058A00049F20040C2F20100806A00F03DFCFFE7CF
:1058B00048F20000C4F20E001A2100F0F9FB400784
:1058C000002808D5FFE749F20040C2F20100806ECF
:1058D00000F02AFCFFE780BD80B548F20000C4F26A
:1058E0000E000B2100F0E4FB4007002808D5FFE77D
:1058F00049F20040C2F20100C06A00F015FCFFE767
:1059000048F20000C4F20E001B2100F0D1FB40075A
:10591000002808D5FFE749F20040C2F20100C06E3E
:1059200000F002FCFFE780BD80B548F20000C4F241
:105930000E000C2100F0BCFB4007002808D5FFE753
:1059400049F20040C2F20100006B00F0EDFBFFE7FE
:1059500048F20000C4F20E001C2100F0A9FB400731
:10596000002808D5FFE749F20040C2F20100006FAD
:1059700000F0DAFBFFE780BD80B548F20000C4F21A
:105980000E000D2100F094FB4007002808D5FFE72A
:1059900049F20040C2F20100406B00F0C5FBFFE796
:1059A00048F20000C4F20E001D2100F081FB400708
:1059B000002808D5FFE749F20040C2F20100406F1D
:1059C00000F0B2FBFFE780BD80B548F20000C4F2F2
:1059D0000E000E2100F06CFB4007002808D5FFE701
:1059E00049F20040C2F20100806B00F09DFBFFE72E
:1059F00048F20000C4F20E001E2100F059FB4007DF
:105A0000002808D5FFE749F20040C2F20100806F8C
:105A100000F08AFBFFE780BD80B548F20000C4F2C9
:105A20000E000F2100F044FB4007002808D5FFE7D7
:105A300049F20040C2F20100C06B00F075FBFFE7C5
:105A400048F20000C4F20E001F2100F031FB4007B5
:105A5000002808D5FFE749F20040C2F20100C06FFC
:105A600000F062FBFFE780BD80B548F20000C4F2A1
:105A70000E00012100F01CFB4007002808D5FFE7BD
:105A800049F20040C2F20100406800F04DFBFFE720
:105A900048F20000C4F20E00112100F009FB40079B
:105AA000002808D5FFE749F20040C2F20100406C2F
:105AB00000F03AFBFFE780BD80B548F20000C4F279
:105AC0000E00022100F0F4FA4007002808D5FFE795
:105AD00049F20040C2F20100806800F025FBFFE7B8
:105AE00048F20000C4F20E00122100F0E1FA400773
:105AF000002808D5FFE749F20040C2F20100806C9F
:105B000000F012FBFFE780BD80B548F20000C4F250
:105B10000E00032100F0CCFA4007002808D5FFE76B
:105B200049F20040C2F20100C06800F0FDFAFFE750
:105B300048F20000C4F20E00132100F0B9FA400749
:105B4000002808D5FFE749F20040C2F20100C06C0E
:105B500000F0EAFAFFE780BD80B548F20000C4F229
:105B60000E00042100F0A4FA4007002808D5FFE742
:105B700049F20040C2F20100006900F0D5FAFFE7E7
:105B800048F20000C4F20E00142100F091FA400720
:105B9000002808D5FFE749F20040C2F20100006D7D
:105BA00000F0C2FAFFE780BD80B548F20000C4F201
:105BB0000E00052100F07CFA4007002808D5FFE719
:105BC00049F20040C2F20100406900F0ADFAFFE77F
:105BD00048F20000C4F20E00152100F069FA4007F7
:105BE000002808D5FFE749F20040C2F20100406DED
:105BF00000F09AFAFFE780BD80B548F20000C4F2D9
:105C00000E00062100F054FA4007002808D5FFE7EF
:105C100049F20040C2F20100806900F085FAFFE716
:105C200048F20000C4F20E00162100F041FA4007CD
:105C3000002808D5FFE749F20040C2F20100806D5C
:105C400000F072FAFFE780BD80B548F20000C4F2B0
:105C50000E00072100F02CFA4007002808D5FFE7C6
:105C600049F20040C2F20100C06900F05DFAFFE7AE
:105C700048F20000C4F20E00172100F019FA4007A4
:105C8000002808D5FFE749F20040C2F20100C06DCC
:105C900000F04AFAFFE780BD80B548F20000C4F288
:105CA0000E00082100F004FA4007002808D5FFE79D
:105CB00049F20040C2F20100006A00F035FAFFE745
:105CC00048F20000C4F20E00182100F0F1F940077C
:105CD000002808D5FFE749F20040C2F20100006E3B
:105CE00000F022FAFFE780BD80B548F20000C4F260
:105CF0000E00092100F0DCF94007002808D5FFE775
:105D000049F20040C2F20100406A00F00DFAFFE7DC
:105D100048F20000C4F20E00192100F0C9F9400752
:105D2000002808D5FFE749F20040C2F20100406EAA
:105D300000F0FAF9FFE780BD80B592B09446864640
:105D40008DF843000F918DF83B200D9343F22150C5
:105D500008900D9804900F98059000208DF8180079
:105D60008DF819009DF843008DF81A0001208DF878
:105D70001B008DF81C009DF83B008DF82C009DF851
:105D80003B00012803D1FFE704A80C901AE09DF81E
:105D90003B00022803D1FFE7089811907CE09DF8B2
:105DA0003B00032803D1FFE70898119074E09DF8A9
:105DB0003B00042803D1FFE7089811906CE0089895
:105DC000119069E049F66810C2F2010000211C221E
:105DD0000390FCF708FE039909610A6909A902907A
:105DE000104603F081FD08900898002801D1FFE7D4
:105DF0000BE04AF28530C8F201004AF22631C8F2BF
:105E000001014FF43D7209F00FFE49F66810C2F22D
:105E100001000169143001900846019903F000FE69
:105E200008900898002801D1FFE70BE04AF285307E
:105E3000C8F201004AF22631C8F2010140F2FE2206
:105E400009F0F2FD49F66810C2F20100016918304C
:105E500000900846009903F08FFD089008980028EC
:105E600001D1FFE70BE04AF28530C8F201004AF2A7
:105E70002631C8F2010140F2093209F0D5FD49F698
:105E80006810C2F20100006948F64451C2F20101F3
:105E9000086000201190FFE7119812B080BD00004B
:105EA00080B586B09446059004918DF80F2002933A
:105EB00000200190FFE70198029988421EDAFFE76F
:105EC000049800680130802809D3FFE705980499F9
:105ED000096800F049F8049900220A60FFE79DF87C
:105EE0000F000599049A12688854049801680131DA
:105EF0000160FFE7019801300190DCE706B080BD4A
:105F000083B080B5A7B02B932A92299125900020C9
:105F10002390229002A88021FCF763FD48F64450AC
:105F2000C2F201000068002803D1FFE7002026909C
:105F300014E029A824902598249943F69113C8F2D7
:105F4000000302AA019203F0D7FE2390239901983F
:105F500000F00AF8229022982690FFE7269827B0B2
:105F6000BDE8804003B0704780B586B004900391CF
:105F700043F2215002900498002801D0FFE70BE083
:105F80004AF27A30C8F201004AF22631C8F2010121
:105F900040F2E91209F048FD0398002801D0FFE71C
:105FA0000BE04AF27030C8F201004AF22631C8F222
:105FB00001014FF4F57209F037FD48F64450C2F282
:105FC00001000068002803D1FFE70020059017E0DA
:105FD0000499039A49F66810C2F20100143003F0E4
:105FE000E3FD02900298002803D1FFE70398019097
:105FF00003E04FF0FF300190FFE701980590FFE7C5
:10600000059806B080BD0000FFE7FEE70000000035
:1060100083B0EFF31080019001980090EFF31080AF
:1060200072B60290009803B07047000000000000B4
:1060300083B0EFF31080019001980090EFF310808F
:1060400072B60290009803B0704700000000000094
:1060500083B0EFF31080019001980090EFF310806F
:1060600072B60290009803B0704700000000000074
:1060700083B0EFF31080019001980090EFF310804F
:1060800072B60290009803B0704700000000000054
:1060900083B0EFF31080019001980090EFF310802F
:1060A00072B60290009803B0704700000000000034
:1060B00084B00390029102981F2801D8FFE70BE0FB
:1060C00049F6F940C8F2010049F63C51C8F2010115
:1060D00040F2C52209F0A8FC002001900398029923
:1060E00000EB411041F21C01405AC0B2019941EA53
:1060F000D01001900398C06A0299C84000F00100D6
:10610000019941EA400001900398406A0299C84011
:1061100000F00100019941EA80000190019804B06B
:10612000704700000000000080B58AB0099009980F
:10613000002801D0FFE70BE049F62D50C8F201001E
:1061400049F63C51C8F2010140F2215209F06CFCC1
:106150000998017C8068C17709988168007C01EB0F
:10616000401041F21C01405AC0B2C0098DF8230012
:106170000998C068002817D1FFE70998006800282F
:1061800011D0FFE70998016842689DF8233003F0B9
:1061900001034FF0000C039111461A466346DDF8E7
:1061A0000CC0E047FFE788E009988168007C01EBBC
:1061B000401041F21801405807900998C0680799AB
:1061C000081A07900798400906909DF82300C00719
:1061D000002804D0FFE706988DF8130011E0069818
:1061E000002805D0FFE79DF818000138029004E070
:1061F0000998007D01380290FFE702988DF813009E
:10620000FFE79DF813000999497C884218D1FFE700
:106210000998C07C8DF812000998007D8DF8110056
:106220009DF912009DF91110884205D1FFE70998E8
:1062300090F91300059002E000200590FFE713E0BD
:106240009DF81300099991F91110401A05900598CD
:10625000B0F1FF3F07DCFFE7099890F914000599BA
:1062600008440590FFE7FFE79DF81300099948747B
:1062700005980999CA7C101AC87409980068002802
:106280000FD0FFE7099801684268059B9DF823C07D
:106290000CF0010C019111466246DDF804C0E047A4
:1062A000FFE79DF82300C007002805D0FFE7099805
:1062B000017C80680177FFE7FFE70AB080BD00003E
:1062C00080B544F20000C4F22D0000F019F880BD42
:1062D00080B582B049F68C10C2F20100006849F224
:1062E0008041C2F20101096848F20002C4F22D02A5
:1062F00001901046019A904702B080BD0000000056
:1063000080B588B00790079840680690079800F01D
:106310006FF805909DF81B0010F00C0F13D0FFE7ED
:1063200049F69010C2F2010000680799059A49F2F7
:106330008043C2F2010353F822200490084611461C
:10634000049A9047FFE79DF81B008007002813D0B0
:10635000FFE749F68810C2F2010000680799059A24
:1063600049F28043C2F2010353F822200390084609
:106370001146039A9047FFE7069810F4C03F13D0E8
:10638000FFE749F68C10C2F2010000680799059AF0
:1063900049F28043C2F2010353F8222002900846DA
:1063A0001146029A9047FFE7BDF81A0046F27C01B9
:1063B000084213D0FFE749F68410C2F201000068DA
:1063C0000799059A49F28043C2F2010353F822204B
:1063D000019008461146019A9047FFE708B080BD3A
:1063E00080B548F20000C4F22D00FFF789FF80BDA0
:1063F00082B0019000200090FFE70098022811D899
:10640000FFE7009849F66C11C8F2010151F820002D
:106410000199884201D1FFE704E0FFE700980130CD
:106420000090EAE70098022801D8FFE70BE049F660
:106430006C50C8F2010049F68F51C8F2010140F2D8
:10644000431209F0F1FA009802B070470000000012
:1064500082B0009000980190019880F3108802B0FB
:10646000704700000000000082B00090009801908A
:10647000019880F3108802B070470000000000000F
:1064800082B0009000980190019880F3108802B0CB
:10649000704700000000000082B00090009801905A
:1064A000019880F3108802B07047000000000000DF
:1064B00080B582B00146ADF80200BDF9020080301F
:1064C000002803D1FFE70120019006E0BDF902009A
:1064D00009F012FA00200190FFE7019802B080BD98
:1064E00080B582B00146ADF80200BDF902008030EF
:1064F000002803D1FFE70120019006E0BDF902006A
:1065000009F016FA00200190FFE7019802B080BD63
:1065100080B582B00146ADF80200BDF902008030BE
:10652000002803D1FFE70120019006E0BDF9020039
:1065300009F01AFA00200190FFE7019802B080BD2F
:1065400080B500F049F880BD80B500F045F880BD09
:1065500080B500F041F880BD80B584B00390029111
:106560009DF80800C00700280FD0FFE703980168D6
:1065700002694069012303FA00F00138904001905C
:106580000846019900F020F8FFE79DF80800800711
:1065900000280FD5FFE703980168026940690123CD
:1065A00003FA00F00138904000900846009900F08E
:1065B00003F8FFE704B080BD82B00190009100981D
:1065C0000199486102B0704782B001900091009833
:1065D0000199086102B0704780B584B000208DF841
:1065E0000F00FFE79DF80F0001282EDCFFE79DF864
:1065F0000F0049F6A411C2F2010151F82000002851
:106600001CD0FFE79DF80F0049F6AC11C2F2010162
:1066100051F8201049F6B412C2F2010252F82020BB
:1066200049F6A413C2F2010353F820000290104669
:10663000029A01911146019B9847FFE7FFE79DF8F9
:106640000F0001308DF80F00CCE704B080BD0000D2
:1066500080B540F20400C2F20000806800F0C0F88B
:10666000C009C00700280CD0FFE748F65C40C2F222
:1066700001000078012803D1FFE713F0FDFBFFE7DD
:10668000FFE740F20400C2F20000806800F0A8F8C2
:10669000C009C00700280CD0FFE748F65C40C2F2F2
:1066A00001000078022803D1FFE713F0B1FDFFE7F6
:1066B000FFE780BD0000000080B540F20400C2F298
:1066C0000000806800F08CF8000CC00700280AD099
:1066D000FFE740F20400C2F2000080684FF480310E
:1066E00000F042F8FFE780BD80B50020C4F21C0036
:1066F00000F0C6F9C006002812D5FFE70020C4F25A
:106700001C00042100F0C8F8B0FA80F0400948F6F7
:106710004851C2F20101496A096803F015F8FFE720
:106720000020C4F21C004FF0FF3100F089F9012075
:1067300002F0EAFF80BD000080B582B001900091B8
:106740000198009900F084F902B080BD00000000BB
:1067500080B582B0019000910198009900F080F915
:1067600002B080BD0000000080B582B001900091B1
:106770000198009900F07CF902B080BD0000000093
:1067800082B0019000200090FFE70098092811D8FE
:10679000FFE7009849F67811C8F2010151F820008E
:1067A0000199884201D1FFE704E0FFE7009801303A
:1067B0000090EAE70098092801D8FFE70AE049F6C7
:1067C0004360C8F2010049F67061C8F20101392244
:1067D00009F02AF9009802B070470000000000009C
:1067E00080B582B00190019800F052F902B080BDEE
:1067F00080B584B00390029101920398FFF7C0FF27
:1068000000900098052815D8FFE7009849F6A011D8
:10681000C8F2010131F91000013000280AD0FFE769
:10682000009849F6A011C8F2010131F91000FDF7F6
:10683000E3F8FFE70298012101FA00F003994A69A1
:1068400022EA000048610198007800280AD1FFE799
:106850000298012101FA00F003994A6822EA000037
:1068600048600EE003980299019A527800F0B8F857
:106870000298012101FA00F003994A681043486028
:10688000FFE703980299019A927800F015F904B095
:1068900080BD00000000000082B0019000910098CF
:1068A0001F2801D8FFE70AE049F66660C8F2010038
:1068B0004AF2B611C8F20101B02209F0B5F8019808
:1068C00000680099C84000F0010002B07047000065
:1068D00082B00190009100981F2801D8FFE70AE0DC
:1068E00049F66660C8F201004AF2B611C8F2010129
:1068F000CD2209F099F8019880680099C84000F00D
:10690000010002B07047000086B013460590049164
:106910008DF80F20049801900498012101FA00F0ED
:106920000599CA6922EA0000C86104980F2804D8B2
:10693000FFE705980C30029006E0059810300290B1
:10694000019810380190FFE79DF80F0001380146CB
:10695000042800913FD80099DFE801F0030E1C2ABB
:10696000340001984000032101FA00F002990A68FE
:1069700022EA000008602FE00298006801994900AF
:1069800003228A409043012202FA01F1084302994E
:10699000086021E0029800680199490003228A40BA
:1069A0009043022202FA01F108430299086013E0C1
:1069B00001984000032101FA00F002990A6810438F
:1069C000086009E00498012101FA00F00599CA69FC
:1069D0001043C86100E0FFE706B070470000000008
:1069E00084B01346039002918DF8072002981F2867
:1069F00001D8FFE70AE049F66660C8F2010049F6EF
:106A00007061C8F20101712209F00EF89DF80700CB
:106A100000280AD1FFE70298012101FA00F003994A
:106A20000A6822EA0000086008E00298012101FAE1
:106A300000F003990A6810430860FFE704B070474C
:106A400082B00190009100980199886102B070476E
:106A500082B00190009100980199886102B070475E
:106A600082B00190009100980199886102B070474E
:106A700082B00190009100980199886102B070473E
:106A800081B000900098806901B07047000000005C
:106A900081B000900098806901B07047000000004C
:106AA00080B582B00190009101980099FFF710FF26
:106AB00002B080BD0000000080B584B01346039092
:106AC00002918DF80720039802999DF80720009302
:106AD000FFF71AFF04B080BD82B00A4601908DF81E
:106AE00003109DF803000199886002B07047000010
:106AF00080B582B00190019800210160019800F0FA
:106B00003BF849F6B811C8F2010131F91000FCF761
:106B100043FF02B080BD000080B582B001900198B3
:106B2000002801D0FFE70AE049F62A70C8F2010008
:106B300049F6E861C8F20101722208F075FF019878
:106B4000002110220091FBF74EFF019901220A70EB
:106B500001994A6001998A7201994A720199009BD0
:106B6000CB7201990B7301990B7201994A7302B0B0
:106B700080BD00000000000082B001900020009065
:106B8000FFE70098022811D8FFE7009849F6AC11FA
:106B9000C8F2010151F820000199884201D1FFE7B4
:106BA00004E0FFE7009801300090EAE7009802282F
:106BB00001D8FFE70AE049F6A060C8F2010049F6F3
:106BC000E861C8F201012F2208F02EFF009802B000
:106BD000704700000000000082B00A4601908DF866
:106BE0000310019880689DF80310084002B07047B8
:106BF00080B582B0019000910098002801D0FFE795
:106C00000AE049F61770C8F2010049F6E861C8F2D7
:106C100001013C2208F008FF0198FFF7ADFF49F69B
:106C2000B811C8F2010131F91000FCF7F5FE019826
:106C300000210160019800F0B7F80098017A427ACB
:106C4000837A90F80BC002F00102002A18BF0822D4
:106C500061F3492263F345126CF30412017B61F383
:106C60008202407B02F102014FEAC070002818BF87
:106C70000A460198026001980099097800F048F8E6
:106C800001980099496800F003F802B080BD000047
:106C900082B001900091009801380021B1EB103FC3
:106CA00001D1FFE70AE049F6C260C8F2010049F6E7
:106CB0003971C8F20101DB2208F0B6FE0198406884
:106CC0000099013961F30B000199486002B07047E7
:106CD00082B001900091009801380021B1EB103F83
:106CE00001D1FFE70AE049F6C260C8F201004AF2AA
:106CF0009F21C8F20101DB2208F096FE019840684E
:106D00000099013961F30B000199486002B07047A6
:106D100082B00A4601908DF803109DF80300052803
:106D20000FD1FFE70198006820F4B8609DF80310C8
:106D300001F0070140EA811000F5806001990860C8
:106D40000CE00198006820F4B8609DF8031001F091
:106D5000070140EA811001990860FFE702B070471F
:106D600084B00B4603908DF80B1001929DF80B0038
:106D7000022801DCFFE70BE04AF27820C8F20100AC
:106D80004AF29F21C8F201014FF4C67208F04CFE8E
:106D90009DF80B000199039A02EB8000016104B099
:106DA000704700000000000081B00090009801686A
:106DB00041F400410160FFE70098006800040028EA
:106DC00001D5FFE7F8E701B07047000000000000C0
:106DD00081B000900098016841F00101016001B0AC
:106DE000704700000000000081B00090009801682A
:106DF00021F00101016001B07047000000000000B7
:106E000082B000900098002804D1FFE70020ADF880
:106E1000060004E042F6AF70ADF80600FFE7BDF8EB
:106E2000060002B07047000080B58CB00A9009914E
:106E30000A98002801D0FFE70AE04AF2A200C8F24F
:106E4000010049F6D231C8F20101E72208F0ECFD59
:106E50000998002801D0FFE70AE049F63270C8F22D
:106E6000010049F6D231C8F20101E82208F0DCFD48
:106E70000998007B082801D8FFE70AE049F663304B
:106E8000C8F2010049F6D231C8F20101E92208F046
:106E9000CBFD0998007B49F6CC01C8F2010151F8FD
:106EA0002000002801D0FFE70AE049F6AC30C8F224
:106EB000010049F6D231C8F20101EA2208F0B4FD1E
:106EC00003A801F06DFB0998406803900998007AC7
:106ED000012804D1FFE702208DF810000DE0099889
:106EE000007A022804D1FFE703208DF8100003E0A8
:106EF00000208DF81000FFE7FFE70998407A01288D
:106F000004D1FFE701208DF8130003E000208DF885
:106F10001300FFE70998807A002818BF01208DF838
:106F20001D000998C07A002818BF01208DF81C00A8
:106F30000998017B49F6CC02C8F2010252F82110EF
:106F4000026803A801900846019901F0C9FB02906C
:106F50000298002806D0FFE70298FFF751FFADF82E
:106F60002E0009E00A9808900998007B089908709B
:106F70000020ADF82E00FFE7BDF82E000CB080BD5C
:106F800080B584B00390029101920398002801D04B
:106F9000FFE70BE04AF2A200C8F2010049F6D23145
:106FA000C8F201014FF4AD7208F03EFD02980028CE
:106FB00001D0FFE70BE04AF26300C8F2010049F696
:106FC000D231C8F2010140F25B1208F02DFD0198A8
:106FD000002801D0FFE70BE049F6FD20C8F20100D0
:106FE00049F6D231C8F201014FF4AE7208F01CFD2F
:106FF000039800900098007849F6CC01C8F201018E
:1070000051F820000299019A02F0E2F8002004B041
:1070100080BD000000000000FFE7FEE70000000068
:1070200080B584B0DDF81CC0DDF818E00390029153
:10703000019200930698002804D0FFE7079806996C
:107040000860FFE704B080BD80B584B0DDF81CC0E7
:10705000DDF818E00390029101920093029800F08D
:107060000F00079901F0010140EA0110039908603F
:107070000198002804D0FFE7009801990860FFE715
:1070800004B080BD0000000088B003900291039816
:1070900020F01F0001900298039908440199401ABA
:1070A000009001980099079006910698012820DB2E
:1070B000FFE70698079901F01F010844059007981B
:1070C0000490BFF34F8FFFE704984EF67071CEF235
:1070D000000108600498203004900598203805903D
:1070E00005980028F0DCFFE7BFF34F8FBFF36F8FE9
:1070F000FFE708B07047000080B50020C4F23F00F1
:10710000012100F025F880BD80B544F20000C4F2F2
:107110003F00022100F01CF880BD000000000000CC
:1071200080B548F20000C4F23F00032100F010F8DF
:1071300080BD00000000000080B54CF20000C4F2E9
:107140003F00042100F004F880BD000000000000B2
:1071500080B584B00390029103980069C0070028AD
:107160001BD0FFE749F6D010C2F2010000680028EA
:1071700013D0FFE749F6D010C2F20100006803996E
:10718000029A49F6BC13C2F2010353F8222001907F
:1071900008461146019A9047FFE70398D0F810017E
:1071A000C00700281BD0FFE749F6E810C2F2010033
:1071B0000068002813D0FFE749F6E810C2F201008A
:1071C00000680399029A49F6D413C2F2010353F8F6
:1071D0002220009008461146009A9047FFE704B02D
:1071E00080BD00000000000080B549F6EC10C2F23E
:1071F00001004068002801D0FFE70BE049F68C70E1
:10720000C8F2010049F6DE71C8F2010140F2D37202
:1072100008F00AFC49F6EC10C2F20100416844F2A1
:107220000000C4F2390000F0CFF980BD000000007A
:1072300080B549F6EC10C2F201008068002801D048
:10724000FFE70BE049F69D70C8F2010049F6DE71D8
:10725000C8F2010140F2DB7208F0E6FB49F6EC10DF
:10726000C2F20100816848F20000C4F2390000F067
:10727000ABF980BD0000000080B549F6EC10C2F209
:107280000100C068002801D0FFE70BE049F6AE70AE
:10729000C8F2010049F6DE71C8F2010140F2E37262
:1072A00008F0C2FB49F6EC10C2F20100C1684CF2D2
:1072B0000000C4F2390000F087F980BD0000000032
:1072C00080B549F6EC10C2F201000069002801D037
:1072D000FFE70BE049F6BF70C8F2010049F6DE7126
:1072E000C8F2010140F2EB7208F09EFB49F6EC1087
:1072F000C2F2010001690020C4F23A0000F064F912
:1073000080BD00000000000084B002900191009256
:107310000298002801D0FFE70BE04AF22D00C8F2E6
:10732000010049F6DE71C8F2010140F2CA2208F0FC
:107330007BFB02988068002804D1FFE700208DF8CD
:107340000F0045E002980068002809D1FFE7029885
:107350004068002804D1FFE700208DF80F0037E0D7
:10736000009804280FD8FFE7029880680099B0FBC6
:10737000F1F202FB1100002804D0FFE700208DF895
:107380000F0025E020E09DF80000800700280BD0CA
:10739000FFE7029880680099884204D0FFE7002048
:1073A0008DF80F0014E00EE0029880680099B0FBA1
:1073B000F1F202FB1100002804D0FFE700208DF855
:1073C0000F0005E0FFE7FFE701208DF80F00FFE762
:1073D0009DF80F0004B0704782B0019000910098B2
:1073E0000199486102B0704782B001900091009805
:1073F0000199486102B0704786B013460590049128
:107400008DF80F200598002801D0FFE70BE049F622
:10741000D770C8F2010049F6DE71C8F2010140F2EE
:10742000157208F001FB0020029004980138014613
:107430000328019100F2B7800199DFE801F0020909
:107440003069059800780290059801300590B6E003
:107450009DF80F00C007002810D1FFE705980078BD
:10746000029005980130059005980078029941EA4C
